:100000000C9434000C9451000C9451000C94510049
:100010000C9451000C9451000C9451000C9451001C
:100020000C9451000C9451000C9451000C947401E8
:100030000C9451000C9451000C9451000C945100FC
:100040000C944E070C9451000C9451000C945100E8
:100050000C9451000C9451000C9451000C945100DC
:100060000C9451000C94510011241FBECFEFD8E026
:10007000DEBFCDBF11E0A0E0B1E0E6E5F5E102C0F2
:1000800005900D92A239B107D9F711E0A2E9B1E0CC
:1000900001C01D92A73CB107E1F70E94F0030C9448
:1000A000A90A0C9400002FEF20932601209327012A
:1000B000209328012093290120932A0120932B01CA
:1000C000DC01E8E2F1E08C91882339F0808311961D
:1000D000319781E0E532F807B1F708959C0197FF69
:1000E0000BC08EE28093290180932A0180932B011B
:1000F000309521953F4F05C08FEF80932A01809363
:100100002B01C9016AE070E00E94450A8093260134
:10011000C9016AE070E00E94450A9B01CB016AE0D8
:1001200070E00E94450A80932701C9016AE070E0EF
:100130000E94450ACB016AE070E00E94450A809364
:1001400028010895982F28982F982E988FEF8BB913
:10015000923091F0933028F4992351F0913069F462
:1001600009C0943039F0943018F0953031F404C05F
:10017000289A03C02F9A01C02E9A633409F46EC0E6
:10018000643470F5663009F483C0673098F46230E7
:1001900009F454C0633038F4662309F44BC061306D
:1001A00009F07AC049C0643009F44CC0653008F0E9
:1001B00069C046C0693009F44BC06A3038F4673012
:1001C00009F442C0683009F067C040C06E3209F4DB
:1001D00063C0613409F446C06D3209F05DC03AC0B5
:1001E0006E3409F441C06F3498F4673409F450C098
:1001F000683430F46434F1F1663409F04DC030C035
:100200006934B1F16934D0F16C3409F045C03CC0B7
:100210006335C1F1643538F4603541F16035E0F0A3
:100220006235D1F52DC0663589F16F3F99F164359E
:1002300099F522C080E531C08FE52FC088E32DC03D
:100240008AE12BC087E129C08EE527C080E125C067
:1002500086E123C08FEB21C089E91FC080EF1DC05C
:1002600084EB1BC084E119C084E517C084E315C08A
:100270008FED13C089E111C081EB0FC085E90DC07E
:100280008DEB0BC082E909C081EF07C089ED05C085
:1002900080E903C06BB908958FEE8BB908952FB72D
:1002A000F894E1E8F0E080818360808380818B7F37
:1002B0008083A0E8B0E08C918C7F8C9380818860F3
:1002C000808380818F7E80838C918F708C9380E07F
:1002D00091E09093890080938800EFE6F0E08081C0
:1002E000826080832FBF08951F920F920FB60F92E6
:1002F00011241F932F933F934F935F936F937F939B
:100300008F939F93AF93BF93EF93FF9328982F986A
:100310002E9810919201E12FF0E0EA5DFE4F812FBF
:1003200060810E94A2001F5F10939201163011F4A9
:1003300010929201FF91EF91BF91AF919F918F9198
:100340007F916F915F914F913F912F911F910F90EE
:100350000FBE0F901F9018951F9382E08093260187
:1003600083E08093270181E0809328011FEF1093A1
:10037000290110932A018EE280932B0160ED77E032
:1003800080E090E00E94D607109326011093270189
:10039000109328011093290110932A0110932B0127
:1003A0001F9108951F93299A1C993BC0439868EBAD
:1003B0007BE080E090E00E94D60783E10E942C075A
:1003C0009C0180918201909183012817390738F0B0
:1003D00080918C0190918D0182179307F8F4439AD4
:1003E0001FEF80E091E00E94530068EE73E080E030
:1003F00090E00E94D60710932601109327011093D6
:1004000028011093290110932A0110932B0168EE03
:1004100073E080E090E00E94D607E3CF439A1F91FB
:1004200008951FEF80E091E00E94530068EE73E0B2
:1004300080E090E00E94D6071093260110932701D8
:10044000109328011093290110932A0110932B0176
:1004500068EE73E080E090E00E94D607E3CF1F9340
:10046000CF93DF93EC0168858DEB91E070E00E9403
:100470001607182F69858DEB91E070E00E94160732
:10048000312F20E0482F50E0422B532B8881998157
:100490004817590744F08A819B81841795071CF0FF
:1004A0005F834E8304C08C819D819F838E83DF9107
:1004B000CF911F910895CF93DF93EC012E813F815F
:1004C00088819981281739072CF08A819B818217AE
:1004D000930724F48C819D819F838E8368854E8150
:1004E0005F81452F550F550B8DEB91E070E00E9419
:1004F0001D0769858DEB91E070E04E810E941D071C
:10050000DF91CF91089580913001909131019093C6
:1005100033018093320180913A0190913B01909395
:100520003D0180933C01809144019091450190935D
:1005300047018093460180914E0190914F01909325
:1005400051018093500180915801909159019093ED
:100550005B0180935A0180916201909163019093B5
:1005600065018093640180916C0190916D0190937D
:100570006F0180936E018091760190917701909345
:10058000790180937801809180019091810190930D
:1005900083018093820180918A0190918B019093D5
:1005A0008D0180938C018CE291E00E945B0286E3D6
:1005B00091E00E945B0280E491E00E945B028AE489
:1005C00091E00E945B0284E591E00E945B028EE56F
:1005D00091E00E945B0288E691E00E945B0282E764
:1005E00091E00E945B028CE791E00E945B0286E84A
:1005F00091E00E945B020895EF92FF920F931F9388
:10060000DF93CF930F92CDB7DEB78C01CB010E9461
:1006100053006EEE72E080E090E00E94D607EE2478
:10062000FF241D9983C01A9981C019825FC0089464
:10063000E11CF11C84EFE81681E0F80661F4F80192
:100640002681378182819381281739070CF045C0B4
:100650002F5F3F4F2AC0F0EDEF16F7E0FF06E9F5F8
:10066000F80126813781828193810A9728173907FB
:10067000BCF5265F3F4F2CC01A9B05C081E08983E3
:10068000EE24FF2433C00894E11CF11CE4EFEE16C5
:10069000E1E0FE0669F4F8012681378180819181CD
:1006A00082179307D4F4215030403783268315C036
:1006B000F0EDEF16F7E0FF0681F4F80126813781AF
:1006C000808191810A968217930754F42A50304012
:1006D00037832683F1E0F98305C081E0898306C072
:1006E000E1E0E98395EFE92E91E0F92EF8018681AA
:1006F00097810E946E00F981F13009F492CF8EE269
:1007000080932B01C8010E945B0268EE73E080E0D9
:1007100090E00E94D6078FEF80932B010F90CF912E
:10072000DF911F910F91FF90EF9008951D9B7FCF58
:10073000A3CF299A219A84B18B7D84B985B1846233
:1007400085B924982C9A439A3B9A8AB18FEF8AB93B
:1007500084B1816C84B90E944F0180E00E94290716
:100760008DEB91E060E070E00E941607823249F064
:100770000E9483028DEB91E060E070E042E20E9413
:100780001D071D9904C01A9902C00E9483028CE2C1
:1007900091E00E942F0286E391E00E942F0280E404
:1007A00091E00E942F028AE491E00E942F0284E5EA
:1007B00091E00E942F028EE591E00E942F0288E6D0
:1007C00091E00E942F0282E791E00E942F028CE7C5
:1007D00091E00E942F0286E891E00E942F02089586
:1007E0003F924F925F926F927F928F929F92AF92C1
:1007F000BF92CF92DF92EF92FF920F931F93CF930E
:10080000DF930E94FC070E9499030E94AC010E94A2
:10081000D20199249A944EE2842E412C32E0532E38
:1008200029EC622E712C332433948EE00E942C0725
:1008300020915A0130915B01280F391F3093BC0180
:100840002093BB0137FF04C01092BC011092BB0182
:100850001C9BE3C2209164013091650180915E018F
:1008600090915F01281739070CF4D7C28091B50128
:100870009091B601865292400CF0CFC20E94A2071E
:100880007B018C018091950190919601A091970137
:10089000B0919801E81AF90A0A0B1B0B60917801D4
:1008A00070917901882777FD8095982F20E63AEEA0
:1008B00040E050E00E94260AE616F70608071907EE
:1008C00008F0ABC243988091B5019091B601E091D8
:1008D0006401F0916501E81BF90BF093AA01E09324
:1008E000A901C091B301D091B401C81BD90BD09319
:1008F000A401C093A3019F01F7FF04C0222733275F
:100900002E1B3F0B80915001909151012817390700
:10091000D4F49F01442737FD4095542F8091A501C1
:100920009091A601A091A701B091A801820F931FF9
:10093000A41FB51F8093A5019093A601A093A701C2
:10094000B093A80108C01092A5011092A6011092C0
:10095000A7011092A801BF01882777FD8095982FE5
:100960000E9437097B018C01609132017091330143
:10097000882777FD8095982F0E94370920E030E086
:1009800048EC52E40E949C089B01AC01C801B701ED
:100990000E94C3095B016C016091A5017091A601E1
:1009A0008091A7019091A8010E9437097B018C01D9
:1009B00060913C0170913D01882777FD8095982FCB
:1009C0000E94370920E030E44CE156E40E949C0884
:1009D0009B01AC01C801B7010E94C3099B01AC0196
:1009E000C601B5010E9438085B016C01BE01882771
:1009F00077FD8095982F0E9437097B018C016091CB
:100A0000460170914701882777FD8095982F0E94B5
:100A1000370920E030E048EC51E40E949C089B013B
:100A2000AC01C801B7010E94C3099B01AC01C6011A
:100A3000B5010E94380860939F017093A0018093D4
:100A4000A1019093A2010E9404097093AC016093EC
:100A5000AB016150724024F05092AC014092AB0166
:100A60008091AB019091AC0197FF04C01092AC0152
:100A70001092AB012091AD013091AE018091AB019C
:100A80009091AC012817390724F480922901299804
:100A900003C0299A90922901C90101969093AE0151
:100AA0008093AD0180509240A1F41092AE0110925B
:100AB000AD010FC0299A0E94A2076093950170931F
:100AC0009601809397019093980101C0299A909282
:100AD00029018091BB019091BC017C010027F7FCAA
:100AE0000095102F8091B7019091B801A091B901A4
:100AF000B091BA01E80EF91E0A1F1B1FE092B70160
:100B0000F092B8010093B9011093BA01609193017A
:100B1000709194016F5F7F4F709394016093930184
:100B200080916E0190916F016817790709F58091A6
:100B3000B5019091B6019093B4018093B3019B01EC
:100B4000442737FD4095542FC801B7010E94580A29
:100B50003093B6012093B5011092B7011092B801FD
:100B60001092B9011092BA0110929401109293015F
:100B70008091B5019091B6018C3391053CF41C999C
:100B80004FC18E970CF04CC1439A01C043981D99F8
:100B90004AC11A9948C1299A8CE291E064E071E057
:100BA0000E94FC0286E391E066E071E00E94FC0294
:100BB00080E491E068E071E00E94FC028AE491E048
:100BC0006AE071E00E94FC0284E591E06EE071E071
:100BD0000E94FC0288E691E062E171E00E94FC0262
:100BE00082E791E066E171E00E94FC028CE791E00F
:100BF0006AE171E00E94FC0286E891E06EE171E03A
:100C00000E94FC0285C00E94A2076093AF0170930E
:100C1000B0018093B1019093B20180919D019091B8
:100C20009E01019690939E0180939D01883C9105C1
:100C300079F4209164013091650180916001909177
:100C40006101281739070CF063C02F5F3F4F39C08F
:100C50008855924009F05CC0209164013091650193
:100C600080916001909161010A97281739070CF073
:100C700046C0265F3F4F3DC01A9946C00E94A2075A
:100C80006093AF017093B0018093B1019093B20172
:100C900080919D0190919E01019690939E01809379
:100CA0009D01883C9105A1F420916401309165017A
:100CB00080915E0190915F01821793074CF521505E
:100CC000304030936501209364011092900120C060
:100CD00088559240E9F4209164013091650180913A
:100CE0005E0190915F010A968217930744F42A509F
:100CF000304030936501209364011092900170920E
:100D00009E0160929D0104C010929E0110929D016F
:100D10000E94A2072091AF013091B0014091B10132
:100D20005091B201621B730B840B950B605D774091
:100D30008040904028F4809164019091650154C0F6
:100D400080919001882399F480922B018EE591E0A7
:100D50000E945B020E94A2076093990170939A011E
:100D600080939B0190939C01309290013FC0209111
:100D7000B5013091B601293231052CF482E291E0BF
:100D80000E94530033C082E02632380704F1299ACA
:100D900043981FEF80E091E00E94530068EE73E0FB
:100DA00080E090E00E94D60710932601109327015F
:100DB000109328011093290110932A0110932B01FD
:100DC00068EE73E080E090E00E94D607E3CF4091A8
:100DD000640150916501C901841B950B029605972A
:100DE00010F4CA0101C0C9010E946E000E94A2074E
:100DF0002091990130919A0140919B0150919C0161
:100E0000621B730B840B950B655F714080409040B3
:100E100008F40BCD90922B0108CD1C9957CE4ACEE9
:100E20001C99B4CEB4CE1D9927CFEDCEF999FECF43
:100E300072BD61BDF89A80B50895F999FECF1FBAC9
:100E400072BD61BD40BD0FB6F894FA9AF99A0FBE13
:100E50000895809391010895982F8E3008F09E5048
:100E60009770809191018295880F880F807C892BE3
:100E700080937C0080917A00806480937A008091D6
:100E80007A0086FDFCCF2091780040917900942F64
:100E900080E030E0282B392BC90108951F920F9272
:100EA0000FB60F9211242F933F934F935F936F933D
:100EB0007F938F939F93AF93BF932091C201309103
:100EC000C3014091C4015091C5017091C601DA017E
:100ED000C9010296A11DB11D672F6A5F6D3730F001
:100EE0006D57DA01C9010396A11DB11D6093C601BA
:100EF0008093C2019093C301A093C401B093C50134
:100F00008091BE019091BF01A091C001B091C1013B
:100F10000196A11DB11D8093BE019093BF01A093C6
:100F2000C001B093C101BF91AF919F918F917F910B
:100F30006F915F914F913F912F910F900FBE0F9046
:100F40001F9018958FB7F8942091C2013091C3017A
:100F50004091C4015091C5018FBFB901CA010895E4
:100F60009FB7F8942091BE013091BF014091C0011C
:100F70005091C10186B5A89B06C08F3F21F02F5F1D
:100F80003F4F4F4F5F4F9FBF542F432F322F22278A
:100F9000280F311D411D511D83E0220F331F441FB7
:100FA000551F8A95D1F7B901CA010895EF92FF92B2
:100FB0000F931F93CF93DF937B018C010E94B007A7
:100FC000EB010EC00E94B0076C1B7D0B685E734086
:100FD000C8F30894E108F10801091109C851DC4F70
:100FE000E114F1040105110569F7DF91CF911F911B
:100FF0000F91FF90EF900895789484B5826084BD3E
:1010000084B5816084BD85B5826085BD85B581600C
:1010100085BDEEE6F0E0808181608083E1E8F0E06C
:101020001082808182608083808181608083E0E89B
:10103000F0E0808181608083E1EBF0E0808184607A
:101040008083E0EBF0E0808181608083EAE7F0E07C
:1010500080818460808380818260808380818160E0
:1010600080838081806880831092C10008955058E9
:10107000BB27AA270ED04DC13ED130F043D120F07E
:1010800031F49F3F11F41EF433C10EF4E095E7FBF9
:1010900029C1E92F4FD180F3BA176207730784077C
:1010A000950718F071F49EF567C10EF4E0950B2ECC
:1010B000BA2FA02D0B01B90190010C01CA01A001AA
:1010C0001124FF27591B99F0593F50F4503E68F105
:1010D0001A16F040A22F232F342F4427585FF3CF46
:1010E000469537952795A795F0405395C9F77EF417
:1010F0001F16BA0B620B730B840BBAF09150A1F060
:10110000FF0FBB1F661F771F881FC2F70EC0BA0FE5
:10111000621F731F841F48F4879577956795B7956D
:10112000F7959E3F08F0B3CF9395880F08F0992765
:10113000EE0F9795879508950CD0EBC0E3D040F063
:10114000DAD030F021F45F3F19F0CCC0511115C155
:10115000CFC0F0D098F39923C9F35523B1F3951B71
:10116000550BBB27AA2762177307840738F09F5FC8
:101170005F4F220F331F441FAA1FA9F333D00E2E37
:101180003AF0E0E830D091505040E695001CCAF7A4
:1011900029D0FE2F27D0660F771F881FBB1F261769
:1011A00037074807AB07B0E809F0BB0B802DBF013C
:1011B000FF2793585F4F2AF09E3F510568F092C079
:1011C000DCC05F3FECF3983EDCF38695779567953E
:1011D000B795F7959F5FC9F7880F911D96958795ED
:1011E00097F90895E1E0660F771F881FBB1F62170C
:1011F00073078407BA0720F0621B730B840BBA0BCA
:10120000EE1F88F7E095089504D06894B111B5C039
:10121000089598D088F09F5790F0B92F9927B7512B
:10122000A0F0D1F0660F771F881F991F1AF0BA95AA
:10123000C9F712C0B13081F09FD0B1E008959CC0D1
:10124000672F782F8827B85F39F0B93FCCF38695A0
:1012500077956795B395D9F73EF4909580957095FD
:1012600061957F4F8F4F9F4F0895E89409C097FB7A
:101270003EF490958095709561957F4F8F4F9F4F6D
:101280009923A9F0F92F96E9BB279395F6958795B1
:1012900077956795B795F111F8CFFAF4BB0F11F474
:1012A00060FF1BC06F5F7F4F8F4F9F4F16C088231B
:1012B00011F096E911C0772321F09EE8872F762F51
:1012C00005C0662371F096E8862F70E060E02AF092
:1012D0009A95660F771F881FDAF7880F969587957E
:1012E00097F9089597F99F6780E870E060E00895A6
:1012F0009FEF80EC089500240A941616170618062E
:101300000906089500240A94121613061406050609
:101310000895092E0394000C11F4882352F0BB0F9A
:1013200040F4BF2B11F460FF04C06F5F7F4F8F4FFD
:101330009F4F089557FD9058440F551F59F05F3F38
:1013400071F04795880F97FB991F61F09F3F79F0E7
:1013500087950895121613061406551FF2CF469569
:10136000F1DF08C0161617061806991FF1CF8695EB
:101370007105610508940895E894BB2766277727CF
:10138000CB0197F908950BD0C4CFB5DF28F0BADFB1
:1013900018F0952309F0A6CFABCF1124EECFCADF0A
:1013A000A0F3959FD1F3950F50E0551F629FF00178
:1013B000729FBB27F00DB11D639FAA27F00DB11DD1
:1013C000AA1F649F6627B00DA11D661F829F22275A
:1013D000B00DA11D621F739FB00DA11D621F839FE1
:1013E000A00D611D221F749F3327A00D611D231FB7
:1013F000849F600D211D822F762F6A2F11249F5705
:1014000050408AF0E1F088234AF0EE0FFF1FBB1F27
:10141000661F771F881F91505040A9F79E3F5105C6
:1014200070F060CFAACF5F3FECF3983EDCF3869577
:1014300077956795B795F795E7959F5FC1F7FE2B71
:10144000880F911D9695879597F90895629FD00111
:10145000739FF001829FE00DF11D649FE00DF11D6F
:10146000929FF00D839FF00D749FF00D659FF00D1E
:101470009927729FB00DE11DF91F639FB00DE11D0B
:10148000F91FBD01CF011124089597FB092E0726EE
:101490000AD077FD04D027D006D000201AF470952A
:1014A00061957F4F0895F6F7909581959F4F089528
:1014B00097FB092E05260ED057FD04D028D00AD060
:1014C000001C38F450954095309521953F4F4F4F73
:1014D0005F4F0895F6F790958095709561957F4FD1
:1014E0008F4F9F4F0895AA1BBB1B51E107C0AA1F36
:1014F000BB1FA617B70710F0A61BB70B881F991FB5
:101500005A95A9F780959095BC01CD010895A1E267
:101510001A2EAA1BBB1BFD010DC0AA1FBB1FEE1F6D
:10152000FF1FA217B307E407F50720F0A21BB30BB8
:10153000E40BF50B661F771F881F991F1A9469F734
:1015400060957095809590959B01AC01BD01CF0190
:061550000895F894FFCF9E
:1015560046414E0050004900440049544800544F4B
:10156600460041564700534C500046534C004653E4
:1015760048002D2D2D00FFFFFFFFFFFF0000E703B2
:101586008A028A0202030000E7030F000F00040527
:101596000000E703F401F4010607000064002D00D3
:1015A6002D0008099CFF6400210021000A0B32006F
:1015B600F4014B004B000C0D6400E703FA00FA003F
:1015C6000E0F00001E000A000A0010117800B40079
:1015D6009600960012132C0190013B013B01141555
:0215E600010101
:00000001FF
