:100000000C9434000C9460000C9460000C9460001C
:100010000C9460000C9460000C9460000C946000E0
:100020000C9460000C9460000C9460000C948301AC
:100030000C9460000C9460000C9460000C946000C0
:100040000C94C7070C9460000C9460000C94600042
:100050000C9460000C9460000C9460000C946000A0
:100060000C9460000C946000A89584B78093CB0139
:1000700084B7877F84BF88E10FB6F89480936000CF
:10008000109260000FBE11241FBECFEFD8E0DEBF7C
:10009000CDBF11E0A0E0B1E0E8E4F6E102C00590D8
:1000A0000D92A639B107D9F711E0A6E9B1E001C078
:1000B0001D92AB3CB107E1F70E94FF030C94220BA9
:1000C0000C9400002FEF20932A0120932B01209302
:1000D0002C0120932D0120932E0120932F01DC0170
:1000E000ECE2F1E08C91882339F08083119631970E
:1000F00081E0E932F807B1F708959C0197FF0BC042
:100100008EE280932D0180932E0180932F013095F4
:1001100021953F4F05C08FEF80932E0180932F01D3
:10012000C9016AE070E00E94BE0A80932A01C901F9
:100130006AE070E00E94BE0A9B01CB016AE070E0B9
:100140000E94BE0A80932B01C9016AE070E00E9400
:10015000BE0ACB016AE070E00E94BE0A80932C01C7
:100160000895982F28982F982E988FEF8BB992305A
:1001700091F0933028F4992351F0913069F409C03B
:10018000943039F0943018F0953031F404C0289A46
:1001900003C02F9A01C02E9A633409F46EC06434F0
:1001A00070F5663009F483C0673098F4623009F462
:1001B00054C0633038F4662309F44BC0613009F051
:1001C0007AC049C0643009F44CC0653008F069C099
:1001D00046C0693009F44BC06A3038F4673009F41E
:1001E00042C0683009F067C040C06E3209F463C095
:1001F000613409F446C06D3209F05DC03AC06E3416
:1002000009F441C06F3498F4673409F450C068347D
:1002100030F46434F1F1663409F04DC030C0693413
:10022000B1F16934D0F16C3409F045C03CC063359C
:10023000C1F1643538F4603541F16035E0F0623584
:10024000D1F52DC0663589F16F3F99F1643599F587
:1002500022C080E531C08FE52FC088E32DC08AE140
:100260002BC087E129C08EE527C080E125C086E14B
:1002700023C08FEB21C089E91FC080EF1DC084EB34
:100280001BC084E119C084E517C084E315C08FED5D
:1002900013C089E111C081EB0FC085E90DC08DEB62
:1002A0000BC082E909C081EF07C089ED05C080E974
:1002B00003C06BB908958FEE8BB908952FB7F894EA
:1002C000E1E8F0E080818360808380818B7F8083A0
:1002D000A0E8B0E08C918C7F8C93808188608083D3
:1002E00080818F7E80838C918F708C9380E091E0F1
:1002F0009093890080938800EFE6F0E0808182602F
:1003000080832FBF08951F920F920FB60F92112472
:100310001F932F933F934F935F936F937F938F938D
:100320009F93AF93BF93EF93FF9328982F982E98A6
:1003300010919601E12FF0E0E65DFE4F812F608184
:100340000E94B1001F5F10939601163011F41092B5
:100350009601FF91EF91BF91AF919F918F917F9106
:100360006F915F914F913F912F911F910F900FBE11
:100370000F901F9018951F9382E080932A0183E0CD
:1003800080932B0181E080932C011FEF10932D01AE
:1003900010932E018EE280932F0160ED77E080E0D4
:1003A00090E00E944F0810932A0110932B011093A4
:1003B0002C0110932D0110932E0110932F011F91EA
:1003C00008951F93299A1C993BC0439868EB7BE0E2
:1003D00080E090E00E944F0883E10E94A5079C0105
:1003E00080918601909187012817390738F0809114
:1003F00090019091910182179307F8F4439A1FEFAF
:1004000080E091E00E94620068EE73E080E090E09E
:100410000E944F0810932A0110932B0110932C0176
:1004200010932D0110932E0110932F0168EE73E0AD
:1004300080E090E00E944F08E3CF439A1F91089517
:100440001FEF80E091E00E94620068EE73E080E0C0
:1004500090E00E944F0810932A0110932B011093F3
:100460002C0110932D0110932E0110932F0168EE93
:1004700073E080E090E00E944F08E3CF1F93CF939A
:10048000DF93EC01688581EC91E070E00E948F07BA
:10049000182F698581EC91E070E00E948F07312F61
:1004A00020E0482F50E0422B532B88819981481738
:1004B000590744F08A819B81841795071CF05F835C
:1004C0004E8304C08C819D819F838E83DF91CF9169
:1004D0001F910895CF93DF93EC012E813F81888196
:1004E0009981281739072CF08A819B8182179307FD
:1004F00024F48C819D819F838E8368854E815F81EA
:10050000452F550F550B81EC91E070E00E94960746
:10051000698581EC91E070E04E810E949607DF9141
:10052000CF910895809134019091350190933701D6
:100530008093360180913E0190913F01909341015B
:1005400080934001809148019091490190934B0123
:1005500080934A01809152019091530190935501EB
:100560008093540180915C0190915D0190935F01B3
:1005700080935E018091660190916701909369017B
:100580008093680180917001909171019093730143
:100590008093720180917A0190917B0190937D010B
:1005A00080937C01809184019091850190938701D3
:1005B0008093860180918E0190918F01909391019B
:1005C0008093900180E391E00E946A028AE391E0C7
:1005D0000E946A0284E491E00E946A028EE491E043
:1005E0000E946A0288E591E00E946A0282E691E038
:1005F0000E946A028CE691E00E946A0286E791E01E
:100600000E946A0280E891E00E946A028AE891E012
:100610000E946A020895EF92FF920F931F93DF9357
:10062000CF930F92CDB7DEB78C01CB010E94620051
:100630006EEE72E080E090E00E944F08EE24FF240E
:100640001D9983C01A9981C019825FC00894E11C6A
:10065000F11C84EFE81681E0F80661F4F8012681C8
:10066000378182819381281739070CF045C02F5FAD
:100670003F4F2AC0F0EDEF16F7E0FF06E9F5F8016D
:1006800026813781828193810A9728173907BCF523
:10069000265F3F4F2CC01A9B05C081E08983EE2462
:1006A000FF2433C00894E11CF11CE4EFEE16E1E0F6
:1006B000FE0669F4F80126813781808191818217D5
:1006C0009307D4F4215030403783268315C0F0EDD2
:1006D000EF16F7E0FF0681F4F8012681378180816B
:1006E00091810A968217930754F42A503040378339
:1006F0002683F1E0F98305C081E0898306C0E1E04B
:10070000E98395EFE92E91E0F92EF8018681978132
:100710000E947D00F981F13009F492CF8EE280933E
:100720002F01C8010E946A0268EE73E080E090E049
:100730000E944F088FEF80932F010F90CF91DF9190
:100740001F910F91FF90EF9008951D9B7FCFA3CF36
:10075000299A219A84B18B7D84B985B1846285B947
:1007600024982C9A439A3B9A8AB18FEF8AB984B124
:10077000816C84B90E945E0180E00E94A20781EC36
:1007800091E060E070E00E948F07823249F00E94A1
:10079000920281EC91E060E070E042E20E949607F4
:1007A0001D9904C01A9902C00E94920280E391E050
:1007B0000E943E028AE391E00E943E0284E491E0BE
:1007C0000E943E028EE491E00E943E0288E591E0A4
:1007D0000E943E0282E691E00E943E028CE691E099
:1007E0000E943E0286E791E00E943E0280E891E08E
:1007F0000E943E028AE891E00E943E0208955F92C4
:100800006F927F928F929F92AF92BF92CF92DF9220
:10081000EF92FF920F931F93CF93DF930E9475087F
:100820000E94A8038091CB0183FF20C0299A43989E
:100830001FEF84E091E00E94620068EE73E080E0C8
:1008400090E00E944F0810932A0110932B011093FF
:100850002C0110932D0110932E0110932F0168EE9F
:1008600073E080E090E00E944F08E3CF0E94BB015C
:100870000E94E101A89584B7877F84BF2BE088E1BF
:1008800090E00FB6F894A895809360000FBE209377
:10089000600099249A944EE2842E612C32E0732EEB
:1008A000C9ECD0E028E1522E8EE00E94A5072091ED
:1008B0005E0130915F01280F391F3093C0012093F2
:1008C000BF0137FF04C01092C0011092BF011C9BF2
:1008D0001DC320916801309169018091620190915E
:1008E0006301281739070CF411C38091B901909165
:1008F000BA01865292400CF009C30E941B087B018A
:100900008C018091990190919A01A0919B01B091E5
:100910009C01E81AF90A0A0B1B0B60917C0170918B
:100920007D01882777FD8095982F20E63AEE40E0FC
:1009300050E00E949F0AE616F7060807190708F01C
:10094000E5C2439860916801709169012091B901F5
:100950003091BA01621B730B7093AE016093AD01CD
:100960008091B7019091B801821B930B9093A801DD
:100970008093A7019B0177FF04C022273327261B02
:10098000370B809154019091550128173907D4F401
:100990009B01442737FD4095542F8091A9019091E8
:1009A000AA01A091AB01B091AC01820F931FA41FCB
:1009B000B51F8093A9019093AA01A093AB01B093B6
:1009C000AC0108C01092A9011092AA011092AB01CB
:1009D0001092AC016091AD017091AE01882777FD56
:1009E0008095982F0E94B0097B018C01609136019F
:1009F00070913701882777FD8095982F0E94B00964
:100A000020E030E048EC52E40E9415099B01AC0163
:100A1000C801B7010E943C0A5B016C016091A90109
:100A20007091AA018091AB019091AC010E94B00934
:100A30007B018C016091400170914101882777FD15
:100A40008095982F0E94B00920E030E44CE156E4F4
:100A50000E9415099B01AC01C801B7010E943C0A24
:100A60009B01AC01C601B5010E94B1085B016C019C
:100A70006091A7017091A801882777FD8095982F34
:100A80000E94B0097B018C0160914A0170914B0179
:100A9000882777FD8095982F0E94B00920E030E0EC
:100AA00048EC51E40E9415099B01AC01C801B70153
:100AB0000E943C0A9B01AC01C601B5010E94B1082D
:100AC0006093A3017093A4018093A5019093A60164
:100AD0000E947D097093B0016093AF016150724034
:100AE00024F07092B0016092AF018091AF019091BB
:100AF000B00197FF04C01092B0011092AF01209195
:100B0000B1013091B2018091AF019091B0012817ED
:100B1000390724F480922D01299803C0299A9092D4
:100B20002D018091B1019091B20101969093B20193
:100B30008093B10180509240A1F41092B2011092C2
:100B4000B1010FC0299A0E941B086093990170930C
:100B50009A0180939B0190939C0101C0299A9092E5
:100B60002D018091BF019091C001AA2797FDA0950A
:100B7000BA2FE090BB01F090BC010091BD01109133
:100B8000BE01E80EF91E0A1F1B1FE092BB01F09286
:100B9000BC010093BD011093BE016091970170915B
:100BA00098016F5F7F4F70939801609397018091D8
:100BB0007201909173016817790709F58091B90165
:100BC0009091BA019093B8018093B7019B0144279B
:100BD00037FD4095542FC801B7010E94D10A3093C8
:100BE000BA012093B9011092BB011092BC0110927E
:100BF000BD011092BE011092980110929701809150
:100C0000B9019091BA018C3391053CF41C9981C1D2
:100C10008E970CF07EC1439A01C043981D997CC108
:100C20001A997AC1299AA89584B7877F84BF0FB68D
:100C3000F89450926000109260000FBE80E391E043
:100C400068E071E00E940B038AE391E06AE071E0E2
:100C50000E940B0384E491E06CE071E00E940B03BE
:100C60008EE491E06EE071E00E940B0388E591E074
:100C700062E171E00E940B038CE691E066E171E0B5
:100C80000E940B0386E791E06AE171E00E940B038A
:100C900080E891E06EE171E00E940B038AE891E048
:100CA00062E271E00E940B03A89584B7877F84BF3E
:100CB0002BE088E190E00FB6F894A895809360004F
:100CC0000FBE2093600090C00E941B086093B30188
:100CD0007093B4018093B5019093B6018091A10106
:100CE0009091A20101969093A2018093A101883C6A
:100CF000910599F420916801309169018091640116
:100D0000909165012817390744F42F5F3F4F3093C6
:100D1000690120936801109294018091A101909142
:100D2000A2018855924009F05FC02091680130917E
:100D3000690180916401909165010A97281739072C
:100D40000CF049C0265F3F4F40C01A9949C00E942D
:100D50001B086093B3017093B4018093B501909325
:100D6000B6018091A1019091A20101969093A201F8
:100D70008093A101883C910599F4209168013091FC
:100D8000690180916201909163018217930744F495
:100D900021503040309369012093680110929401F2
:100DA0008091A1019091A20188559240E9F420918F
:100DB00068013091690180916201909163010A9606
:100DC0008217930744F42A503040309369012093EE
:100DD000680110929401D093A201C093A10104C0B4
:100DE0001092A2011092A1010E941B082091B30150
:100DF0003091B4014091B5015091B601621B730B63
:100E0000840B950B605D77408040904028F4809182
:100E100068019091690161C0809194018823A1F4D7
:100E200080922F0182E691E00E946A020E941B08D4
:100E300060939D0170939E0180939F019093A00108
:100E400081E0809394014BC02091B9013091BA01A7
:100E5000293231052CF486E291E00E9462003FC005
:100E600082E02632380764F1299A4398A89584B71E
:100E7000877F84BF88E10FB6F8948093600010925A
:100E800060000FBE1FEF80E091E00E94620068EEFC
:100E900073E080E090E00E944F0810932A011093C5
:100EA0002B0110932C0110932D0110932E01109300
:100EB0002F0168EE73E080E090E00E944F08E3CFDE
:100EC0004091680150916901C901841B950B0296FC
:100ED000059710F4CA0101C0C9010E947D000E945B
:100EE0001B0820919D0130919E0140919F015091DE
:100EF000A001621B730B840B950B655F71408040F2
:100F0000904010F090922F01A895CECC1C9926CE3F
:100F100019CE1C9982CE82CE1D9917CFD5CEF999C4
:100F2000FECF72BD61BDF89A80B50895F999FECFE4
:100F30001FBA72BD61BD40BD0FB6F894FA9AF99A16
:100F40000FBE0895809395010895982F8E3008F074
:100F50009E509770809195018295880F880F807CB4
:100F6000892B80937C0080917A00806480937A0042
:100F700080917A0086FDFCCF209178004091790025
:100F8000942F80E030E0282B392BC90108951F925F
:100F90000F920FB60F9211242F933F934F935F93AD
:100FA0006F937F938F939F93AF93BF932091C601CD
:100FB0003091C7014091C8015091C9017091CA0197
:100FC000DA01C9010296A11DB11D672F6A5F6D3755
:100FD00030F06D57DA01C9010396A11DB11D609370
:100FE000CA018093C6019093C701A093C801B09332
:100FF000C9018091C2019091C301A091C401B09137
:10100000C5010196A11DB11D8093C2019093C3013A
:10101000A093C401B093C501BF91AF919F918F91EF
:101020007F916F915F914F913F912F910F900FBEE4
:101030000F901F9018958FB7F8942091C6013091AA
:10104000C7014091C8015091C9018FBFB901CA01C0
:1010500008959FB7F8942091C2013091C301409147
:10106000C4015091C50186B5A89B06C08F3F21F0F1
:101070002F5F3F4F4F4F5F4F9FBF542F432F322F54
:101080002227280F311D411D511D83E0220F331FE0
:10109000441F551F8A95D1F7B901CA010895EF92EF
:1010A000FF920F931F93CF93DF937B018C010E94DC
:1010B0002908EB010EC00E9429086C1B7D0B685E9D
:1010C0007340C8F30894E108F10801091109C851F7
:1010D000DC4FE114F1040105110569F7DF91CF91AF
:1010E0001F910F91FF90EF900895789484B58260DE
:1010F00084BD84B5816084BD85B5826085BD85B5BC
:10110000816085BDEEE6F0E0808181608083E1E86A
:10111000F0E01082808182608083808181608083A2
:10112000E0E8F0E0808181608083E1EBF0E08081A5
:1011300084608083E0EBF0E0808181608083EAE777
:10114000F0E0808184608083808182608083808100
:10115000816080838081806880831092C1000895BF
:101160005058BB27AA270ED04DC13ED130F043D1F5
:1011700020F031F49F3F11F41EF433C10EF4E095DA
:10118000E7FB29C1E92F4FD180F3BA176207730734
:101190008407950718F071F49EF567C10EF4E09589
:1011A0000B2EBA2FA02D0B01B90190010C01CA0121
:1011B000A0011124FF27591B99F0593F50F4503ECC
:1011C00068F11A16F040A22F232F342F4427585FBE
:1011D000F3CF469537952795A795F0405395C9F7D6
:1011E0007EF41F16BA0B620B730B840BBAF091508E
:1011F000A1F0FF0FBB1F661F771F881FC2F70EC02D
:10120000BA0F621F731F841F48F4879577956795FF
:10121000B795F7959E3F08F0B3CF9395880F08F0E8
:101220009927EE0F9795879508950CD0EBC0E3D0E2
:1012300040F0DAD030F021F45F3F19F0CCC051110A
:1012400015C1CFC0F0D098F39923C9F35523B1F35A
:10125000951B550BBB27AA2762177307840738F025
:101260009F5F5F4F220F331F441FAA1FA9F333D084
:101270000E2E3AF0E0E830D091505040E695001C38
:10128000CAF729D0FE2F27D0660F771F881FBB1FF4
:10129000261737074807AB07B0E809F0BB0B802DCE
:1012A000BF01FF2793585F4F2AF09E3F510568F01A
:1012B00092C0DCC05F3FECF3983EDCF386957795F7
:1012C0006795B795F7959F5FC9F7880F911D96951C
:1012D000879597F90895E1E0660F771F881FBB1F78
:1012E000621773078407BA0720F0621B730B840B25
:1012F000BA0BEE1F88F7E095089504D06894B111F9
:10130000B5C0089598D088F09F5790F0B92F9927CD
:10131000B751A0F0D1F0660F771F881F991F1AF000
:10132000BA95C9F712C0B13081F09FD0B1E00895ED
:101330009CC0672F782F8827B85F39F0B93FCCF36E
:10134000869577956795B395D9F73EF490958095F6
:10135000709561957F4F8F4F9F4F0895E89409C016
:1013600097FB3EF490958095709561957F4F8F4FD8
:101370009F4F9923A9F0F92F96E9BB279395F695EE
:10138000879577956795B795F111F8CFFAF4BB0F6C
:1013900011F460FF1BC06F5F7F4F8F4F9F4F16C0D0
:1013A000882311F096E911C0772321F09EE8872F5A
:1013B000762F05C0662371F096E8862F70E060E016
:1013C0002AF09A95660F771F881FDAF7880F96958F
:1013D000879597F9089597F99F6780E870E060E036
:1013E00008959FEF80EC089500240A9416161706BE
:1013F00018060906089500240A9412161306140606
:1014000005060895092E0394000C11F4882352F068
:10141000BB0F40F4BF2B11F460FF04C06F5F7F4F20
:101420008F4F9F4F089557FD9058440F551F59F007
:101430005F3F71F04795880F97FB991F61F09F3FC1
:1014400079F087950895121613061406551FF2CFEA
:101450004695F1DF08C0161617061806991FF1CF3A
:1014600086957105610508940895E894BB27662761
:101470007727CB0197F908950BD0C4CFB5DF28F0BB
:10148000BADF18F0952309F0A6CFABCF1124EECF29
:10149000CADFA0F3959FD1F3950F50E0551F629FCF
:1014A000F001729FBB27F00DB11D639FAA27F00DBD
:1014B000B11DAA1F649F6627B00DA11D661F829FE4
:1014C0002227B00DA11D621F739FB00DA11D621FC9
:1014D000839FA00D611D221F749F3327A00D611DE6
:1014E000231F849F600D211D822F762F6A2F1124C8
:1014F0009F5750408AF0E1F088234AF0EE0FFF1F1B
:10150000BB1F661F771F881F91505040A9F79E3F51
:10151000510570F060CFAACF5F3FECF3983EDCF34B
:10152000869577956795B795F795E7959F5FC1F78E
:10153000FE2B880F911D9695879597F90895629FC8
:10154000D001739FF001829FE00DF11D649FE00DBB
:10155000F11D929FF00D839FF00D749FF00D659F1C
:10156000F00D9927729FB00DE11DF91F639FB00D1B
:10157000E11DF91FBD01CF011124089597FB092E2C
:1015800007260AD077FD04D027D006D000201AF411
:10159000709561957F4F0895F6F7909581959F4FCF
:1015A000089597FB092E05260ED057FD04D028D0AC
:1015B0000AD0001C38F450954095309521953F4F46
:1015C0004F4F5F4F0895F6F7909580957095619510
:1015D0007F4F8F4F9F4F0895AA1BBB1B51E107C040
:1015E000AA1FBB1FA617B70710F0A61BB70B881FB3
:1015F000991F5A95A9F780959095BC01CD01089542
:10160000A1E21A2EAA1BBB1BFD010DC0AA1FBB1F06
:10161000EE1FFF1FA217B307E407F50720F0A21B78
:10162000B30BE40BF50B661F771F881F991F1A94E5
:1016300069F760957095809590959B01AC01BD010F
:08164000CF010895F894FFCFDB
:1016480046414E005253540050004900440049544A
:101658004800544F460041564700534C50004653EB
:101668004C00465348002D2D2D00FFFFFFFFFFFFC4
:101678000000E7038A028A0202030000E7030F0062
:101688000F0004050000E703F401F4010607000059
:1016980064002D002D0008099CFF64002100210032
:1016A8000A0B3200F4014B004B000C0D6400E703F9
:1016B800FA00FA000E0F00001E000A000A001011BE
:1016C8007800B4009600960012132C0190013B019B
:0616D8003B0114150101A5
:00000001FF
