:100000000C9434000C9460000C9460000C9460001C
:100010000C9460000C9460000C9460000C946000E0
:100020000C9460000C9460000C9460000C9413031A
:100030000C9460000C9460000C9460000C946000C0
:100040000C9489070C9460000C9460000C94600080
:100050000C9460000C9460000C9460000C946000A0
:100060000C9460000C946000A89584B78093E20122
:1000700084B7877F84BF88E10FB6F89480936000CF
:10008000109260000FBE11241FBECFEFD8E0DEBF7C
:10009000CDBF11E0A0E0B1E0EEE8F3E102C00590D1
:1000A0000D92AA3AB107D9F721E0AAEAB1E001C05E
:1000B0001D92A23EB207E1F70E944C040C94C509C0
:1000C0000C9400008FEF809365018093660180930C
:1000D0006701809368018093690180936A010895A4
:1000E000CF93DF9300D0CDB7DEB789839A830E9488
:1000F00062008981E82F9A81F92FA8E6B1E0819109
:10010000882329F08E9381E0A536B807C1F70F90B8
:100110000F90DF91CF910895CF93DF93EC018E8103
:100120009F8128813981821793072CF02A813B8196
:100130002817390724F48C819D819F838E836F81DA
:10014000888590E00E94B70989856E8190E0DF91F3
:10015000CF910C94B7091F93CF93DF93EC0188855F
:1001600090E00E94AF09182F898590E00E94AF09A6
:10017000212F30E0322F2227282B888199812817C0
:10018000390744F08A819B81821793071CF03F83D3
:100190002E8304C08C819D819F838E83DF91CF91BC
:1001A0001F91089580915F01909160019093620189
:1001B000809361018091550190915601909358016F
:1001C0008093570180914B0190914C0190934E0187
:1001D00080934D018091410190914201909344019F
:1001E00080934301809137019091380190933A01B7
:1001F0008093390180912D0190912E0190933001CF
:1002000080932F01809123019091240190932601E6
:10021000809325018091190190911A0190931C01FE
:1002200080931B0180910F01909110019093120116
:10023000809311018091050190910601909308012E
:10024000809307018BE591E00E948C0081E591E0AD
:100250000E948C0087E491E00E948C008DE391E085
:100260000E948C0083E391E00E948C0089E291E07F
:100270000E948C008FE191E00E948C0085E191E06A
:100280000E948C008BE091E00E948C0081E091E064
:100290000C948C0097FF0BC02EE2209368012093F2
:1002A000690120936A0191958195910905C02FEF0D
:1002B0002093690120936A012AE030E0B9010E948D
:1002C0001D0980936501CB01B9010E941D0980932E
:1002D0006601CB01B9010E941D0980936701089551
:1002E000643409F45BC040F5673009F44DC090F404
:1002F000633009F447C038F4613009F467C008F08E
:100300003FC090E564C0653009F458C008F04AC0A9
:1003100097E15DC06D32F1F140F46930C9F1B0F19F
:100320006A3209F051C096E352C06134A9F16334D6
:1003300009F04AC090EF4BC06F34E1F180F46834AB
:1003400099F128F4663461F168F590EB40C06C34A3
:1003500069F16E3469F16934B9F59FED38C06435DF
:1003600079F138F4623541F148F5603569F594E387
:100370002EC0663539F130F16F3F31F59FEF27C060
:1003800098E325C09AE123C09EE521C090E11FC0FB
:1003900096E11DC09FEB1BC094E119C099E117C005
:1003A00094EB15C090E913C095E911C091EF0FC00F
:1003B00094E50DC099E90BC09DEB09C092E907C017
:1003C00091EB05C099ED03C09FEE01C09FE54F3F43
:1003D00009F09F7E2FEF2BB99BB9813049F030F0A7
:1003E000823049F42E9A28982F980895289A04C0AC
:1003F0002F9A289802C028982F982E980895009731
:1004000021F48CE691E00C9470000C944A01299A36
:100410001C9B1DC080E791E00E94700068EE73E0B5
:1004200080E090E00E94020884E791E00E94700062
:1004300060ED77E080E090E00E9402080E94620098
:1004400068EE73E080E090E00E940208E1CF1C9922
:1004500037C0439868EB7BE080E090E00E940208A0
:1004600083E10E94680820911101309112018217E6
:10047000930738F0209107013091080128173907B8
:10048000F0F4439A8CE691E00E94700068EE73E00D
:1004900080E090E00E94020888E791E00E947000EE
:1004A00060ED77E080E090E00E9402080E94620028
:1004B00068EE73E080E090E00E940208E3CF439A88
:1004C00008951092650184E08093660181E0809335
:1004D00067018FEF80936801809369018EE28093BA
:1004E0006A0160ED77E080E090E00E9402080C94E1
:1004F00062002FB7F894E1E8F0E0808183608083A8
:1005000080818B7F8083A0E8B0E08C918C7F8C937E
:1005100080818860808380818F7E80838C918F70C2
:100520008C9380E091E09093890080938800EFE6BF
:10053000F0E08081826080832FBF0895299A219AFC
:1005400084B18B7D84B985B1846285B924982C9A55
:10055000439A3B9A8AB18FEF8AB984B1816C84B98E
:100560000E94790280E00E94650880E090E00E948D
:10057000AF09823239F00E94D20062E280E090E05E
:100580000E94B7091D992CC01A992AC00E94D20056
:100590008BE591E00E94AB0081E591E00E94AB0009
:1005A00087E491E00E94AB008DE391E00E94AB00F4
:1005B00083E391E00E94AB0089E291E00E94AB00EE
:1005C0008FE191E00E94AB0085E191E00E94AB00D9
:1005D0008BE091E00E94AB0081E091E00C94AB00D5
:1005E0001D99D6CF8CE691E00E94700068EE73E012
:1005F00080E090E00E9402088CE791E00E94700089
:1006000068EE73E080E090E00E940208439864EF97
:1006100071E080E090E00E94020883E10E94680897
:100620000E944A01F4CF1F920F920FB60F9211242D
:100630002F933F934F935F936F937F938F939F93EA
:10064000AF93BF93CF93EF93FF93C091AD01EC2F86
:10065000F0E0EB59FE4F438160818C2F0E947001C6
:10066000CF5FC33019F0C093AD0102C01092AD014D
:100670009091D80183B1809589279091AC019823FE
:1006800090959093AC012091AB01282329272093CA
:10069000AB01892382239091D80198279093D801A8
:1006A0002091D8019091D7012823292B2093D7019D
:1006B0008091D801847219F48FEF8093AA01809100
:1006C000AA01815019F08093AA010BC082E38093A4
:1006D000AA018091D8019091D6018472892B8093D0
:1006E000D601FF91EF91CF91BF91AF919F918F91E3
:1006F0007F916F915F914F913F912F910F900FBE1E
:100700000F901F901895F8949091D701892390919C
:10071000D70198279093D70178940895F8949091F1
:10072000D60189239091D60198279093D601789489
:100730000895F8949091D801909589230C9483039F
:100740009091D70189230E948E030C94830390918A
:10075000D701909589230C948E039091D70198230B
:10076000981711F080E001C0892F0C9483031F9328
:10077000CF93DF93EC01CB010E9470006EEE72E02C
:1007800080E090E00E94020880E20E9499038823A2
:1007900049F08E819F812A813B818217930744F51E
:1007A00001960DC084E00E949903882359F08E8140
:1007B0009F812881398128173907D4F401979F83B5
:1007C0008E8316C080E20E94A003811105C080E2E2
:1007D0000E94A703882331F12E813F818A819B816A
:1007E0000A972817390724F4265F3F4F3F832E834B
:1007F00011E08E819F810E944A01113029F28EE220
:1008000080936A01CE010E948C0068EE73E080E064
:1008100090E00E9402088FEF80936A01DF91CF91F0
:100820001F91089584E00E94A00381110DC084E00F
:100830000E94A703811108C084E20E94AD0311E069
:100840008823B9F210E0D5CF2E813F81888199812C
:100850000A968217930764F62A503109C7CFA895E4
:1008600084B7877F84BF88E10FB6F89480936000D7
:10087000109260000FBE0895A89584B7877F84BF4B
:100880002BE088E190E00FB6F894A8958093600083
:100890000FBE2093600008950E942A080E949E02C5
:1008A000299A43988091E20190E00E944A0114BE87
:1008B00068EE73E080E090E00E9402088091E2011F
:1008C00083FF15C0299A439880E891E00E94700048
:1008D00068EE73E080E090E00E9402080E946200EF
:1008E00068EE73E080E090E00E940208EDCF0E9485
:1008F00061020E9407020E943C0477247A94C4E6B5
:10090000D0E000E117E229E1E22EF12C3EE2532E85
:10091000C12C42E0D42E662463948EE00E946808C5
:100920002091390130913A01280F391F37FD05C058
:100930003093D5012093D40104C01092D5011092B8
:10094000D40180912F0190913001009779F11C9B87
:1009500039C02091290130912A018217930794F11F
:100960008091CE019091CF01863292405CF50E9439
:10097000D3074B015C018091D0019091D101A091EE
:10098000D201B091D301881A990AAA0ABB0AA09190
:100990001B01B0911C0120E63AEE0E945009861618
:1009A0009706A806B90608F4C3C10CC0299A0E948C
:1009B000D3076093D0017093D1018093D2019093BB
:1009C000D30103C01C9BF2CF299A70926801409119
:1009D000D4015091D501BA01882777FD8095982FD1
:1009E0008090B8019090B901A090BA01B090BB017D
:1009F000680D791D8A1D9B1D6093B8017093B90124
:100A00008093BA019093BB014091B6015091B70118
:100A10004F5F5F4F5093B7014093B601209125017E
:100A20003091260142175307F9F42091CE013091FD
:100A3000CF013093CB012093CA019A01442737FD9F
:100A40004095542F0E9431093093CF012093CE015D
:100A50001092B8011092B9011092BA011092BB0124
:100A60001092B7011092B6018091CE019091CF0102
:100A70008C3391053CF41C9904C08E9714F4439A6E
:100A800002C01C99439880E20E9499038823D9F000
:100A90000E94D3076093B2017093B3018093B401B5
:100AA0009093B50180912F0190913001009709F446
:100AB0004BC020912B0130912C01821793070CF031
:100AC00058C0019652C084E00E949903882311F116
:100AD0000E94D3076093B2017093B3018093B40175
:100AE0009093B50180912F019091300120912901BF
:100AF00030912A012817390714F4019736C082175C
:100B0000930709F083C01092300110922F01609278
:100B100000017CC080E20E94A003811105C080E238
:100B20000E94A703882341F10E94D3076093B2017A
:100B30007093B3018093B4019093B50180912F011C
:100B400090913001009729F48091290190912A0118
:100B50000CC020912B0130912C01A9014A50510960
:100B6000841795070CF0D0C10A96909330018093BA
:100B70002F01109200014AC084E00E94A00381115D
:100B8000A8C184E00E94A7038111A3C184E20E944E
:100B9000AD038823D9F1299A0E942F0464E971E0FA
:100BA0008BE591E00E94B70364E871E081E591E094
:100BB0000E94B7036AE771E087E491E00E94B703FF
:100BC00066E871E08DE391E00E94B7036AE871E0A6
:100BD00083E391E00E94B7036EE871E08FE191E05A
:100BE0000E94B70362E971E085E191E00E94B703DA
:100BF00066E971E08BE091E00E94B7036AE971E079
:100C000081E091E00E94B7030E943C040E94D30758
:100C10008090B2019090B301A090B401B090B50162
:100C2000681979098A099B09603D7740810591051A
:100C300038F480912F01909130010E94FF0161C032
:100C400080910001811113C050926A0189E291E004
:100C50000E948C000E94D3076093AE017093AF0195
:100C60008093B0019093B101609200014AC08091DD
:100C7000CE019091CF018932910574F480912F01BA
:100C800090913001892B19F48CE691E002C08EE935
:100C900091E00E94700035C0863242E094070CF16A
:100CA000299A43980E942F0482EA91E00E947000E2
:100CB00068EE73E080E090E00E94020885EA91E02F
:100CC0000E94700060ED77E080E090E00E940208F2
:100CD0000E94620068EE73E080E090E00E940208EB
:100CE000E3CF20912F0130913001AC01421B530B17
:100CF0009A012E5F3F4F2530310508F49ACF0E94AC
:100D00004A010E94D3078090AE019090AF01A0905D
:100D1000B001B090B101681979098A099B09653F52
:100D200071408105910510F070926A01A895F5CD8A
:100D300043988091CE019091CF0120912F01309165
:100D40003001281B390B3093CD012093CC01E09169
:100D5000CA01F091CB01E81BF90BF093C901E093B4
:100D6000C801C90137FF04C088279927821B930B4C
:100D7000409143015091440184179507D4F4809128
:100D8000C4019091C501A091C601B091C701A9010C
:100D9000662757FD6095762F840F951FA61FB71FF6
:100DA0008093C4019093C501A093C601B093C7017D
:100DB00008C01092C4011092C5011092C601109291
:100DC000C7018091610190916201BE010E941D09DD
:100DD000269F4001279F900C369F900C1124AA2437
:100DE00097FCA094BA2C8091570190915801B801BA
:100DF0000E941D092091C4013091C5014091C60196
:100E00005091C701DB010E945709860E971EA81E4C
:100E1000B91E80914D0190914E01B7010E941D09AC
:100E2000E69FC001E79F900DF69F900D1124AA2721
:100E300097FDA095BA2F880E991EAA1EBB1EC5014C
:100E4000B4010E94B9086093C0017093C1018093FE
:100E5000C2019093C3010E948608613042E074078A
:100E60002CF47093BF016093BE0104C0D092BF0107
:100E7000C092BE018091BE019091BF0197FF04C056
:100E80001092BF011092BE012091BC013091BD01B2
:100E90008091BE019091BF012817390724F4509228
:100EA0006801299803C0299A709268018091BC0159
:100EB0009091BD010196811552E0950729F090931C
:100EC000BD018093BC0183CD1092BD011092BC0185
:100ED0007ECD0E94D3076093B2017093B3018093DB
:100EE000B4019093B50120912F0130913001809190
:100EF000290190912A01AC01465F5F4F42175307C9
:100F00000CF033CE2A5031093093300120932F0159
:100F100030CE1F920F920FB60F9211242F933F9352
:100F20008F939F93AF93BF938091DA019091DB01F0
:100F3000A091DC01B091DD013091D90126E0230FB1
:100F40002D3720F40296A11DB11D05C029E8230FFD
:100F50000396A11DB11D2093D9018093DA019093CE
:100F6000DB01A093DC01B093DD018091DE01909163
:100F7000DF01A091E001B091E1010196A11DB11D39
:100F80008093DE019093DF01A093E001B093E10133
:100F9000BF91AF919F918F913F912F910F900FBE75
:100FA0000F901F9018952FB7F8946091DA01709107
:100FB000DB018091DC019091DD012FBF08953FB7E7
:100FC000F8948091DE019091DF01A091E001B09151
:100FD000E10126B5A89B05C02F3F19F00196A11D80
:100FE000B11D3FBF6627782F892F9A2F620F711D81
:100FF000811D911D43E0660F771F881F991F4A9539
:10100000D1F70895CF92DF92EF92FF92CF93DF93C3
:101010006B017C010E94DF07EB01C114D104E104E4
:10102000F10489F00E9485080E94DF076C1B7D0B8C
:10103000683E734090F381E0C81AD108E108F108D6
:10104000C851DC4FEACFDF91CF91FF90EF90DF9056
:10105000CF900895789484B5826084BD84B5816012
:1010600084BD85B5826085BD85B5816085BDEEE6B0
:10107000F0E0808181608083E1E8F0E0108280818F
:1010800082608083808181608083E0E8F0E08081FD
:1010900081608083E1EBF0E0808184608083E0EB1D
:1010A000F0E0808181608083EAE7F0E08081846005
:1010B000808380818260808380818E7F8083808135
:1010C000806880831092C100089580936B01089519
:1010D0008E3008F08E50877020916B0190E4299F2C
:1010E00090011124822B80937C0080917A0080648F
:1010F00080937A0080917A0086FDFCCF8091780001
:101100002091790090E0922B0895089504D068947E
:10111000B1118DC0089570D088F09F5790F0B92F0D
:101120009927B751A0F0D1F0660F771F881F991F3C
:101130001AF0BA95C9F712C0B13081F077D0B1E09A
:10114000089574C0672F782F8827B85F39F0B93FAA
:10115000CCF3869577956795B395D9F73EF490953E
:101160008095709561957F4F8F4F9F4F0895E894BC
:1011700009C097FB3EF490958095709561957F4FDF
:101180008F4F9F4F9923A9F0F92F96E9BB2793958D
:10119000F695879577956795B795F111F8CFFAF49D
:1011A000BB0F11F460FF1BC06F5F7F4F8F4F9F4FCE
:1011B00016C0882311F096E911C0772321F09EE82C
:1011C000872F762F05C0662371F096E8862F70E092
:1011D00060E02AF09A95660F771F881FDAF7880F6C
:1011E0009695879597F9089557FD9058440F551F88
:1011F00059F05F3F71F04795880F97FB991F61F099
:101200009F3F79F087950895121613061406551F0F
:10121000F2CF4695F1DF08C0161617061806991F7B
:10122000F1CF86957105610508940895E894BB2770
:1012300066277727CB0197F9089597FB072E16F4B9
:10124000009407D077FD09D00E945F0907FC05D004
:101250003EF4909581959F4F0895709561957F4FCD
:101260000895052E97FB1EF400940E94480957FD2F
:1012700007D00E94730907FC03D04EF40C94480970
:1012800050954095309521953F4F4F4F5F4F0895B2
:1012900090958095709561957F4F8F4F9F4F0895E2
:1012A0000E949509B7FF0895821B930B0895B7FF1D
:1012B0000C94A4090E94A409821B930B0895AA1BF5
:1012C000BB1B51E107C0AA1FBB1FA617B70710F031
:1012D000A61BB70B881F991F5A95A9F78095909563
:1012E000BC01CD010895A1E21A2EAA1BBB1BFD0172
:1012F0000DC0AA1FBB1FEE1FFF1FA217B307E407F5
:10130000F50720F0A21BB30BE40BF50B661F771F4C
:10131000881F991F1A9469F760957095809590952C
:101320009B01AC01BD01CF010895A29FB001B39F05
:10133000C001A39F700D811D1124911DB29F700DDE
:10134000811D1124911D08950E949509A59F900D5E
:10135000B49F900DA49F800D911D11240895F999BB
:10136000FECF92BD81BDF89A992780B50895262FAA
:10137000F999FECF1FBA92BD81BD20BD0FB6F8947A
:0E138000FA9AF99A0FBE01960895F894FFCFDD
:10138E00012C0190016801680114157800B40096D3
:10139E00009600121300001E000A000A00101164CD
:1013AE0000E703FA00FA000E0F3200F4014B004B77
:1013BE00000C0D9CFF6400210021000A0B0000644C
:1013CE00002D002D0008090000E703F401F40106CA
:1013DE00070000E7030F000F0004050000E7038A73
:1013EE00028A020203FFFFFFFFFFFF0146414E008C
:1013FE0043524100444C4500535044005453540052
:10140E0052535400490049544800544F4600415627
:10141E004700534C500046534C00465348002D2D68
:0A142E002D002A4300455252000031
:00000001FF
