:100000000C9434000C9460000C9460000C9460001C
:100010000C9460000C9460000C9460000C946000E0
:100020000C9460000C9460000C9460000C948401AB
:100030000C9460000C9460000C9460000C946000C0
:100040000C94F4070C9460000C9460000C94600015
:100050000C9460000C9460000C9460000C946000A0
:100060000C9460000C946000A89584B78093DF0125
:1000700084B7877F84BF88E10FB6F89480936000CF
:10008000109260000FBE11241FBECFEFD4E0DEBF80
:10009000CDBF11E0A0E0B1E0ECEBF6E102C00590CD
:1000A0000D92AA3AB107D9F711E0AAEAB1E001C06E
:1000B0001D92AF3DB107E1F70E9414040C945C0B54
:1000C0000C9400002FEF20933D0120933E012093DC
:1000D0003F01209340012093410120934201DC0124
:1000E000EFE3F1E08C91882339F08083119631970A
:1000F00081E0EC33F807B1F708959C0197FF0BC03E
:100100008EE28093400180934101809342013095BB
:1001100021953F4F05C08FEF8093410180934201AD
:10012000C9016AE070E00E94F80A80933D01C901AC
:100130006AE070E00E94F80A9B01CB016AE070E07F
:100140000E94F80A80933E01C9016AE070E00E94B3
:10015000F80ACB016AE070E00E94F80A80933F0140
:100160000895982F28982F982E988FEF8BB992305A
:1001700091F0933028F4992351F0913069F409C03B
:10018000943039F0943018F0953031F404C0289A46
:1001900003C02F9A01C02E9A643409F46DC06534EF
:1001A00060F5673009F45CC0683098F4633009F496
:1001B00053C0643038F4613009F44AC0623008F04A
:1001C00049C044C0653009F46DC0663008F05AC0BB
:1001D00045C06D3209F44AC06E3248F4693009F402
:1001E00043C06930F8F16A3209F066C061C0613419
:1001F000F9F1633409F060C03DC06F3409F44CC0BC
:10020000603590F4683409F43FC0693428F46634EA
:10021000B9F16734B8F532C06C34D1F16E34D1F134
:10022000693409F049C032C06435F1F1653538F4FC
:100230006235B1F16335B0F56035F1F52FC0663543
:10024000A9F1663598F16F3FB9F534C080E535C046
:100250008FE533C088E331C08AE12FC087E12DC02C
:100260008EE52BC080E129C086E127C08FEB25C039
:1002700084E123C080EF21C089E11FC080EB1DC055
:1002800084EB1BC080E919C085E917C08FED15C04C
:1002900081EF13C084E511C089E90FC084E30DC06C
:1002A0008DEB0BC082E909C081EB07C089ED05C069
:1002B00086E303C06BB908958FEE8BB908952FB70D
:1002C000F894E1E8F0E080818360808380818B7F17
:1002D0008083A0E8B0E08C918C7F8C9380818860D3
:1002E000808380818F7E80838C918F708C9380E05F
:1002F00091E09093890080938800EFE6F0E08081A0
:10030000826080832FBF08951F920F920FB60F92C5
:1003100011241F932F933F934F935F936F937F937A
:100320008F939F93AF93BF93EF93FF9328982F984A
:100330002E981091AA01E12FF0E0E35CFE4F812F8F
:1003400060810E94B1001F5F1093AA01163011F462
:100350001092AA01FF91EF91BF91AF919F918F9160
:100360007F916F915F914F913F912F911F910F90CE
:100370000FBE0F901F9018951F9387E080933D014B
:1003800083E080933E0181E080933F011FEF109353
:100390004001109341018EE28093420160ED77E0CD
:1003A00080E090E00E94560810933D0110933E01BA
:1003B00010933F01109340011093410110934201AB
:1003C0001F9108951F93299A1C9945C0439868EB83
:1003D0007BE080E090E00E94560883E10E94D20713
:1003E0009C018091990190919A012817390738F062
:1003F0008091A3019091A4018217930748F5439A35
:100400001FEF80E091E00E94620068EE73E080E000
:1004100090E00E94560884E091E00E94620060ED46
:1004200077E080E090E00E94560810933D01109321
:100430003E0110933F01109340011093410110932E
:10044000420168EE73E080E090E00E945608D9CF48
:10045000439A1F9108951FEF88E091E00E94620087
:1004600068EE73E080E090E00E9456088CE091E036
:100470000E94620060ED77E080E090E00E94560804
:1004800010933D0110933E0110933F0110934001E2
:10049000109341011093420168EE73E080E090E018
:1004A0000E945608D9CF1F93CF93DF93EC01688544
:1004B00085ED91E070E00E94BC07182F698585EDFD
:1004C00091E070E00E94BC07312F20E0482F50E0FF
:1004D000422B532B888199814817590744F08A8110
:1004E0009B81841795071CF05F834E8304C08C8129
:1004F0009D819F838E83DF91CF911F910895CF932C
:10050000DF93EC012E813F8188819981281739077B
:100510002CF08A819B818217930724F48C819D8122
:100520009F838E8368854E815F81452F550F550BC4
:1005300085ED91E070E00E94C307698585ED91E04B
:1005400070E04E810E94C307DF91CF9108958091A2
:1005500047019091480190934A018093490180910D
:1005600051019091520190935401809353018091D5
:100570005B0190915C0190935E0180935D0180919D
:100580006501909166019093680180936701809165
:100590006F0190917001909372018093710180912D
:1005A000790190917A0190937C0180937B018091F5
:1005B00083019091840190938601809385018091BD
:1005C0008D0190918E019093900180938F01809185
:1005D00097019091980190939A018093990180914D
:1005E000A1019091A2019093A4018093A30183E4BF
:1005F00091E00E947F028DE491E00E947F0287E5F6
:1006000091E00E947F0281E691E00E947F028BE6EA
:1006100091E00E947F0285E791E00E947F028FE7D0
:1006200091E00E947F0289E891E00E947F0283E9C5
:1006300091E00E947F028DE991E00E947F0208957F
:10064000EF92FF920F931F93DF93CF930F92CDB74B
:10065000DEB78C01CB010E9462006EEE72E080E09A
:1006600090E00E945608EE24FF241D9983C01A9939
:1006700081C019825FC00894E11CF11C84EFE81668
:1006800081E0F80661F4F801268137818281938147
:10069000281739070CF045C02F5F3F4F2AC0F0EDF7
:1006A000EF16F7E0FF06E9F5F80126813781828130
:1006B00093810A9728173907BCF5265F3F4F2CC056
:1006C0001A9B05C081E08983EE24FF2433C008947F
:1006D000E11CF11CE4EFEE16E1E0FE0669F4F8011E
:1006E000268137818081918182179307D4F421502C
:1006F00030403783268315C0F0EDEF16F7E0FF0694
:1007000081F4F80126813781808191810A968217D0
:10071000930754F42A50304037832683F1E0F9835D
:1007200005C081E0898306C0E1E0E98395EFE92E09
:1007300091E0F92EF801868197810E947D00F98170
:10074000F13009F492CF8EE280934201C8010E94F9
:100750007F0268EE73E080E090E00E9456088FEF21
:10076000809342010F90CF91DF911F910F91FF90E5
:10077000EF9008951D9B7FCFA3CF299A219A84B132
:100780008B7D84B985B1846285B924982C9A439A6B
:100790003B9A8AB18FEF8AB984B1816C84B90E9487
:1007A0005F0180E00E94CF0785ED91E060E070E09E
:1007B0000E94BC07823249F00E94A70285ED91E0B9
:1007C00060E070E042E20E94C3071D9904C01A99DC
:1007D00002C00E94A70283E491E00E9453028DE4CC
:1007E00091E00E94530287E591E00E94530281E666
:1007F00091E00E9453028BE691E00E94530285E74C
:1008000091E00E9453028FE791E00E94530289E831
:1008100091E00E94530283E991E00E9453028DE926
:1008200091E00E94530208955F926F927F928F929F
:100830009F92AF92BF92CF92DF92EF92FF920F936F
:100840001F93CF93DF930E94AF080E94BD03299AA4
:1008500043988091DF0190E00E947D0014BE68EE15
:1008600073E080E090E00E9456088091DF0183FFF2
:1008700020C0299A43981FEF80E191E00E94620016
:1008800068EE73E080E090E00E94560810933D010E
:1008900010933E0110933F011093400110934101CA
:1008A0001093420168EE73E080E090E00E945608E9
:1008B000E3CF0E94BC010E94E201A89584B7877F24
:1008C00084BF2BE088E190E00FB6F894A895809360
:1008D00060000FBE2093600099249A944EE2842E0B
:1008E000612C32E0732EC9ECD0E028E1522E8EE06C
:1008F0000E94D2072091710130917201280F391F97
:100900003093D4012093D30137FF04C01092D40157
:100910001092D3011C9B27C320917B0130917C0155
:100920008091750190917601281739070CF41BC34B
:100930008091CD019091CE01865292400CF013C36C
:100940000E9448087B018C018091AD019091AE011D
:10095000A091AF01B091B001E81AF90A0A0B1B0B84
:1009600060918F0170919001882777FD8095982F75
:1009700020E63AEE40E050E00E94D90AE616F7067B
:100980000807190708F0EFC2439860917B01709146
:100990007C012091CD013091CE01621B730B7093CD
:1009A000C2016093C1018091CB019091CC01821B67
:1009B000930B9093BC018093BB019B0177FF04C014
:1009C00022273327261B370B8091670190916801FE
:1009D00028173907D4F49B01442737FD4095542F3D
:1009E0008091BD019091BE01A091BF01B091C00165
:1009F000820F931FA41FB51F8093BD019093BE016A
:100A0000A093BF01B093C00108C01092BD01109225
:100A1000BE011092BF011092C0016091C10170919E
:100A2000C201882777FD8095982F0E94EA097B01F3
:100A30008C016091490170914A01882777FD80956A
:100A4000982F0E94EA0920E030E048EC52E40E942E
:100A50004F099B01AC01C801B7010E94760A5B01F6
:100A60006C016091BD017091BE018091BF019091B8
:100A7000C0010E94EA097B018C01609153017091D1
:100A80005401882777FD8095982F0E94EA0920E07D
:100A900030E44CE156E40E944F099B01AC01C801CF
:100AA000B7010E94760A9B01AC01C601B5010E9404
:100AB000EB085B016C016091BB017091BC01882760
:100AC00077FD8095982F0E94EA097B018C01609147
:100AD0005D0170915E01882777FD8095982F0E94B7
:100AE000EA0920E030E048EC51E40E944F099B0104
:100AF000AC01C801B7010E94760A9B01AC01C60196
:100B0000B5010E94EB086093B7017093B801809320
:100B1000B9019093BA010E94B7097093C401609320
:100B2000C3016150724024F07092C4016092C3010D
:100B30008091C3019091C40197FF04C01092C40139
:100B40001092C3012091C5013091C6018091C3016B
:100B50009091C4012817390724F480924001299804
:100B600003C0299A909240018091C5019091C601DD
:100B700001969093C6018093C50180509240A1F4E4
:100B80001092C6011092C5010FC0299A0E94480810
:100B90006093AD017093AE018093AF019093B0016B
:100BA00001C0299A909240018091D3019091D40183
:100BB000AA2797FDA095BA2FE090CF01F090D00121
:100BC0000091D1011091D201E80EF91E0A1F1B1FDE
:100BD000E092CF01F092D0010093D1011093D201A5
:100BE0006091AB017091AC016F5F7F4F7093AC016E
:100BF0006093AB0180918501909186016817790718
:100C000009F58091CD019091CE019093CC01809314
:100C1000CB019B01442737FD4095542FC801B701F4
:100C20000E940B0B3093CE012093CD011092CF0187
:100C30001092D0011092D1011092D2011092AC0109
:100C40001092AB018091CD019091CE018C33910532
:100C50003CF41C998BC18E970CF088C1439A01C05B
:100C600043981D9986C11A9984C1299AA89584B779
:100C7000877F84BF0FB6F894509260001092600096
:100C80000FBE83E491E064E171E00E9420038DE4F3
:100C900091E066E171E00E94200387E591E068E160
:100CA00071E00E94200381E691E06AE171E00E9418
:100CB00020038BE691E06EE171E00E9420038FE754
:100CC00091E062E271E00E94200389E891E066E22F
:100CD00071E00E94200383E991E06AE271E00E94E2
:100CE00020038DE991E06EE271E00E942003A89557
:100CF00084B7877F84BF2BE088E190E00FB6F8943B
:100D0000A895809360000FBE2093600090C00E9461
:100D100048086093C7017093C8018093C9019093FC
:100D2000CA018091B5019091B60101969093B601E8
:100D30008093B501883C910599F420917B01309115
:100D40007C0180917701909178012817390744F44C
:100D50002F5F3F4F30937C0120937B011092A701BE
:100D60008091B5019091B6018855924009F05FC01D
:100D700020917B0130917C018091770190917801E5
:100D80000A97281739070CF049C0265F3F4F40C02B
:100D90001A9949C00E9448086093C7017093C8011E
:100DA0008093C9019093CA018091B5019091B601D9
:100DB00001969093B6018093B501883C910599F412
:100DC00020917B0130917C01809175019091760199
:100DD0008217930744F42150304030937C012093D4
:100DE0007B011092A7018091B5019091B6018855C1
:100DF0009240E9F420917B0130917C018091750152
:100E0000909176010A968217930744F42A50304055
:100E100030937C0120937B011092A701D093B601FF
:100E2000C093B50104C01092B6011092B5010E94A2
:100E300048082091C7013091C8014091C9015091E3
:100E4000CA01621B730B840B950B605D7740804079
:100E5000904028F480917B0190917C016BC080913F
:100E6000A7018823A1F48092420185E791E00E94C6
:100E70007F020E9448086093B1017093B201809391
:100E8000B3019093B40181E08093A70155C02091F4
:100E9000CD013091CE01293231052CF482E391E06D
:100EA0000E94620049C082E026323807B4F1299AD4
:100EB0004398A89584B7877F84BF88E10FB6F894DC
:100EC00080936000109260000FBE1FEF86E391E0F8
:100ED0000E94620068EE73E080E090E00E94560895
:100EE00089E391E00E94620060ED77E080E090E0AD
:100EF0000E94560810933D0110933E0110933F014C
:100F000010934001109341011093420168EE73E089
:100F100080E090E00E945608D9CF40917B0150912B
:100F20007C01C901841B950B0296059710F4CA0138
:100F300001C0C9010E947D000E9448082091B101B2
:100F40003091B2014091B3015091B401621B730B17
:100F5000840B950B655F71408040904010F090923B
:100F60004201A895C4CC1C991CCE0FCE1C9978CEFA
:100F700078CE1D990DCFCBCEF999FECF72BD61BD54
:100F8000F89A80B50895F999FECF1FBA72BD61BD78
:100F900040BD0FB6F894FA9AF99A0FBE089580935F
:100FA000A8010895982F8E3008F09E509770809178
:100FB000A8018295880F880F807C892B80937C0004
:100FC00080917A00806480937A0080917A0086FD17
:100FD000FCCF2091780040917900942F80E030E0A0
:100FE000282B392BC90108951F920F920FB60F922B
:100FF00011242F933F934F935F936F937F938F931E
:101000009F93AF93BF932091DA013091DB01409120
:10101000DC015091DD017091DE01DA01C901029617
:10102000A11DB11D672F6A5F6D3730F06D57DA0172
:10103000C9010396A11DB11D6093DE018093DA0101
:101040009093DB01A093DC01B093DD018091D60188
:101050009091D701A091D801B091D9010196A11D1D
:10106000B11D8093D6019093D701A093D801B0937E
:10107000D901BF91AF919F918F917F916F915F91B6
:101080004F913F912F910F900FBE0F901F90189589
:101090008FB7F8942091DA013091DB014091DC01A7
:1010A0005091DD018FBFB901CA0108959B01AC01C8
:1010B0007FB7F8948091D6019091D701A091D80183
:1010C000B091D90166B5A89B05C06F3F19F0019694
:1010D000A11DB11D7FBFBA2FA92F982F8827860F7A
:1010E000911DA11DB11D63E0880F991FAA1FBB1F91
:1010F0006A95D1F7BC012DC0FFB7F8948091D60155
:101100009091D701A091D801B091D901E6B5A89BE3
:1011100005C0EF3F19F00196A11DB11DFFBFBA2F09
:10112000A92F982F88278E0F911DA11DB11DE3E0D7
:10113000880F991FAA1FBB1FEA95D1F7861B970B33
:10114000885E9340C8F22150304040405040685182
:101150007C4F211531054105510571F608957894AC
:1011600084B5826084BD84B5816084BD85B58260AC
:1011700085BD85B5816085BDEEE6F0E0808181604A
:101180008083E1E8F0E0108280818260808380814A
:1011900081608083E0E8F0E0808181608083E1EB22
:1011A000F0E0808184608083E0EBF0E0808181600A
:1011B0008083EAE7F0E080818460808380818260C0
:1011C00080838081816080838081806880831092A9
:1011D000C10008955058BB27AA270ED04DC13ED15B
:1011E00030F043D120F031F49F3F11F41EF433C1AD
:1011F0000EF4E095E7FB29C1E92F4FD180F3BA1730
:10120000620773078407950718F071F49EF567C1AC
:101210000EF4E0950B2EBA2FA02D0B01B901900111
:101220000C01CA01A0011124FF27591B99F0593F55
:1012300050F4503E68F11A16F040A22F232F342F9D
:101240004427585FF3CF469537952795A795F040EB
:101250005395C9F77EF41F16BA0B620B730B840B00
:10126000BAF09150A1F0FF0FBB1F661F771F881FB8
:10127000C2F70EC0BA0F621F731F841F48F4879510
:1012800077956795B795F7959E3F08F0B3CF9395FF
:10129000880F08F09927EE0F9795879508950CD041
:1012A000EBC0E3D040F0DAD030F021F45F3F19F02A
:1012B000CCC0511115C1CFC0F0D098F39923C9F318
:1012C0005523B1F3951B550BBB27AA27621773074C
:1012D000840738F09F5F5F4F220F331F441FAA1F00
:1012E000A9F333D00E2E3AF0E0E830D091505040C0
:1012F000E695001CCAF729D0FE2F27D0660F771F6E
:10130000881FBB1F261737074807AB07B0E809F04F
:10131000BB0B802DBF01FF2793585F4F2AF09E3FE4
:10132000510568F092C0DCC05F3FECF3983EDCF3FF
:10133000869577956795B795F7959F5FC9F7880F5D
:10134000911D9695879597F90895E1E0660F771FAF
:10135000881FBB1F621773078407BA0720F0621B40
:10136000730B840BBA0BEE1F88F7E095089504D039
:101370006894B111B5C0089598D088F09F5790F047
:10138000B92F9927B751A0F0D1F0660F771F881FAA
:10139000991F1AF0BA95C9F712C0B13081F09FD0E9
:1013A000B1E008959CC0672F782F8827B85F39F087
:1013B000B93FCCF3869577956795B395D9F73EF409
:1013C00090958095709561957F4F8F4F9F4F0895B1
:1013D000E89409C097FB3EF49095809570956195CF
:1013E0007F4F8F4F9F4F9923A9F0F92F96E9BB2785
:1013F0009395F695879577956795B795F111F8CF01
:10140000FAF4BB0F11F460FF1BC06F5F7F4F8F4F6B
:101410009F4F16C0882311F096E911C0772321F061
:101420009EE8872F762F05C0662371F096E8862FF9
:1014300070E060E02AF09A95660F771F881FDAF750
:10144000880F9695879597F9089597F99F6780E893
:1014500070E060E008959FEF80EC089500240A9406
:101460001616170618060906089500240A9412167F
:101470001306140605060895092E0394000C11F4B2
:10148000882352F0BB0F40F4BF2B11F460FF04C05F
:101490006F5F7F4F8F4F9F4F089557FD9058440FB8
:1014A000551F59F05F3F71F04795880F97FB991FC3
:1014B00061F09F3F79F08795089512161306140680
:1014C000551FF2CF4695F1DF08C01616170618060D
:1014D000991FF1CF86957105610508940895E894E8
:1014E000BB2766277727CB0197F908950BD0C4CF88
:1014F000B5DF28F0BADF18F0952309F0A6CFABCFFF
:101500001124EECFCADFA0F3959FD1F3950F50E0E1
:10151000551F629FF001729FBB27F00DB11D639FA5
:10152000AA27F00DB11DAA1F649F6627B00DA11D4B
:10153000661F829F2227B00DA11D621F739FB00DF1
:10154000A11D621F839FA00D611D221F749F332761
:10155000A00D611D231F849F600D211D822F762FFA
:101560006A2F11249F5750408AF0E1F088234AF0F7
:10157000EE0FFF1FBB1F661F771F881F9150504043
:10158000A9F79E3F510570F060CFAACF5F3FECF303
:10159000983EDCF3869577956795B795F795E7952F
:1015A0009F5FC1F7FE2B880F911D9695879597F940
:1015B0000895629FD001739FF001829FE00DF11D9D
:1015C000649FE00DF11D929FF00D839FF00D749FBD
:1015D000F00D659FF00D9927729FB00DE11DF91F69
:1015E000639FB00DE11DF91FBD01CF0111240895C6
:1015F00097FB092E07260AD077FD04D027D006D006
:1016000000201AF4709561957F4F0895F6F7909534
:1016100081959F4F089597FB092E05260ED057FD03
:1016200004D028D00AD0001C38F45095409530954D
:1016300021953F4F4F4F5F4F0895F6F79095809556
:10164000709561957F4F8F4F9F4F0895AA1BBB1BCD
:1016500051E107C0AA1FBB1FA617B70710F0A61BB2
:10166000B70B881F991F5A95A9F780959095BC01D3
:10167000CD010895A1E21A2EAA1BBB1BFD010DC0CE
:10168000AA1FBB1FEE1FFF1FA217B307E407F50732
:1016900020F0A21BB30BE40BF50B661F771F881F0E
:1016A000991F1A9469F760957095809590959B01A4
:0C16B000AC01BD01CF010895F894FFCFFC
:1016BC0046414E005350440043524100444C4500B7
:1016CC005253540050004900440049544800544FB0
:1016DC00460041564700534C500046534C0046536D
:1016EC0048002D2D2D002A430045525200FFFFFFCC
:1016FC00FFFFFF0000E7038A028A0202030000E7F3
:10170C00030F000F0004050000E703F401F40106C9
:10171C0007000064002D002D0008099CFF640021C7
:10172C000021000A0B3200F4014B004B000C0D643D
:10173C0000E703FA00FA000E0F00001E000A000A70
:10174C000010117800B4009600960012132C019032
:0A175C00013B013B011415010100DF
:00000001FF
