:100000000C9434000C9460000C9460000C9460001C
:100010000C9460000C9460000C9460000C946000E0
:100020000C9460000C9460000C9460000C948301AC
:100030000C9460000C9460000C9460000C946000C0
:100040000C94DF070C9460000C9460000C9460002A
:100050000C9460000C9460000C9460000C946000A0
:100060000C9460000C946000A89584B78093D30131
:1000700084B7877F84BF88E10FB6F89480936000CF
:10008000109260000FBE11241FBECFEFD4E0DEBF80
:10009000CDBF11E0A0E0B1E0E2E9F6E102C00590D9
:1000A0000D92AE39B107D9F711E0AEE9B1E001C068
:1000B0001D92A33DB107E1F70E9409040C94470B80
:1000C0000C9400002FEF20933201209333012093F2
:1000D0003401209335012093360120933701DC0150
:1000E000E4E3F1E08C91882339F080831196319715
:1000F00081E0E133F807B1F708959C0197FF0BC049
:100100008EE28093350180933601809337013095DC
:1001100021953F4F05C08FEF8093360180933701C3
:10012000C9016AE070E00E94E30A80933201C901CC
:100130006AE070E00E94E30A9B01CB016AE070E094
:100140000E94E30A80933301C9016AE070E00E94D3
:10015000E30ACB016AE070E00E94E30A8093340175
:100160000895982F28982F982E988FEF8BB992305A
:1001700091F0933028F4992351F0913069F409C03B
:10018000943039F0943018F0953031F404C0289A46
:1001900003C02F9A01C02E9A643409F46EC06534EE
:1001A00068F5663009F46FC0673098F4623009F47E
:1001B00052C0633038F4662309F449C0613009F055
:1001C0007AC047C0643009F44AC0653008F06BC09B
:1001D00044C06D3209F44BC06E3248F4683009F403
:1001E00042C06830F0F1693009F065C03EC061344A
:1001F00009F43FC0633409F05EC03DC06E3409F4B9
:100200004AC06F3490F46734F1F1683430F46534E7
:10021000B1F1663409F04FC034C06934C1F16934BA
:10022000A0F16C3409F047C034C06335E1F16435A6
:1002300038F46035A1F1603580F16235E1F531C007
:100240006635A9F16F3FA9F16435A9F52EC080E5A7
:1002500033C08FE531C088E32FC08AE12DC087E12C
:100260002BC08EE529C080E127C086E125C08FEB39
:1002700023C084E121C080EF1FC089E11DC080EB55
:100280001BC084EB19C080E917C085E915C08FED4C
:1002900013C081EF11C084E50FC089E90DC084E36C
:1002A0000BC08DEB09C082E907C081EB05C089ED69
:1002B00003C06BB908958FEE8BB908952FB7F894EA
:1002C000E1E8F0E080818360808380818B7F8083A0
:1002D000A0E8B0E08C918C7F8C93808188608083D3
:1002E00080818F7E80838C918F708C9380E091E0F1
:1002F0009093890080938800EFE6F0E0808182602F
:1003000080832FBF08951F920F920FB60F92112472
:100310001F932F933F934F935F936F937F938F938D
:100320009F93AF93BF93EF93FF9328982F982E98A6
:1003300010919E01E12FF0E0EE5CFE4F812F608175
:100340000E94B1001F5F10939E01163011F41092AD
:100350009E01FF91EF91BF91AF919F918F917F91FE
:100360006F915F914F913F912F911F910F900FBE11
:100370000F901F9018951F9385E08093320183E0C2
:100380008093330181E0809334011FEF1093350196
:10039000109336018EE28093370160ED77E080E0C4
:1003A00090E00E94410810933201109333011093A2
:1003B00034011093350110933601109337011F91CA
:1003C00008951F93299A1C993BC0439868EB7BE0E2
:1003D00080E090E00E94410883E10E94BD079C01FB
:1003E00080918E0190918F012817390738F0809104
:1003F00098019091990182179307F8F4439A1FEF9F
:1004000080E091E00E94620068EE73E080E090E09E
:100410000E9441081093320110933301109334016C
:1004200010933501109336011093370168EE73E095
:1004300080E090E00E944108E3CF439A1F91089525
:100440001FEF84E091E00E9462006EE571E080E0C1
:1004500090E00E94410888E091E00E94620068EE0E
:1004600073E080E090E00E94410810933201109305
:10047000330110933401109335011093360110931A
:10048000370168EE73E080E090E00E944108D9CF28
:100490001F93CF93DF93EC01688589EC91E070E0C6
:1004A0000E94A707182F698589EC91E070E00E94EF
:1004B000A707312F20E0482F50E0422B532B888193
:1004C00099814817590744F08A819B8184179507C1
:1004D0001CF05F834E8304C08C819D819F838E833B
:1004E000DF91CF911F910895CF93DF93EC012E817F
:1004F0003F8188819981281739072CF08A819B8157
:100500008217930724F48C819D819F838E83688555
:100510004E815F81452F550F550B89EC91E070E0BE
:100520000E94AE07698589EC91E070E04E810E94DF
:10053000AE07DF91CF91089580913C0190913D01EC
:1005400090933F0180933E01809146019091470135
:1005500090934901809348018091500190915101FD
:10056000909353018093520180915A0190915B01C5
:1005700090935D0180935C0180916401909165018D
:10058000909367018093660180916E0190916F0155
:10059000909371018093700180917801909179011D
:1005A00090937B0180937A018091820190918301E5
:1005B000909385018093840180918C0190918D01AD
:1005C00090938F0180938E01809196019091970175
:1005D000909399018093980188E391E00E947402BE
:1005E00082E491E00E9474028CE491E00E94740223
:1005F00086E591E00E94740280E691E00E94740218
:100600008AE691E00E94740284E791E00E947402FD
:100610008EE791E00E94740288E891E00E947402E3
:1006200082E991E00E9474020895EF92FF920F9385
:100630001F93DF93CF930F92CDB7DEB78C01CB0121
:100640000E9462006EEE72E080E090E00E9441083D
:10065000EE24FF241D9983C01A9981C019825FC0BE
:100660000894E11CF11C84EFE81681E0F80661F4BF
:10067000F8012681378182819381281739070CF090
:1006800045C02F5F3F4F2AC0F0EDEF16F7E0FF06A1
:10069000E9F5F80126813781828193810A9728172D
:1006A0003907BCF5265F3F4F2CC01A9B05C081E07F
:1006B0008983EE24FF2433C00894E11CF11CE4EF8D
:1006C000EE16E1E0FE0669F4F801268137818081AB
:1006D000918182179307D4F42150304037832683C9
:1006E00015C0F0EDEF16F7E0FF0681F4F801268162
:1006F0003781808191810A968217930754F42A509A
:10070000304037832683F1E0F98305C081E0898397
:1007100006C0E1E0E98395EFE92E91E0F92EF801BA
:10072000868197810E947D00F981F13009F492CF92
:100730008EE280933701C8010E94740268EE73E074
:1007400080E090E00E9441088FEF809337010F9086
:10075000CF91DF911F910F91FF90EF9008951D9B16
:100760007FCFA3CF299A219A84B18B7D84B985B19B
:10077000846285B924982C9A439A3B9A8AB18FEF68
:100780008AB984B1816C84B90E945E0180E00E94C4
:10079000BA0789EC91E060E070E00E94A70782321E
:1007A00049F00E949C0289EC91E060E070E042E236
:1007B0000E94AE071D9904C01A9902C00E949C02B3
:1007C00088E391E00E94480282E491E00E9448029E
:1007D0008CE491E00E94480286E591E00E94480284
:1007E00080E691E00E9448028AE691E00E94480279
:1007F00084E791E00E9448028EE791E00E9448025F
:1008000088E891E00E94480282E991E00E94480253
:1008100008955F926F927F928F929F92AF92BF9254
:10082000CF92DF92EF92FF920F931F93CF93DF93BC
:100830000E949A080E94B203299A43988091D3019A
:1008400090E00E947D0014BE68EE73E080E090E0CE
:100850000E9441088091D30183FF20C0299A4398C8
:100860001FEF8CE091E00E94620068EE73E080E090
:1008700090E00E94410810933201109333011093CD
:10088000340110933501109336011093370168EE4F
:1008900073E080E090E00E944108E3CF0E94BB013A
:1008A0000E94E101A89584B7877F84BF2BE088E18F
:1008B00090E00FB6F894A895809360000FBE209347
:1008C000600099249A944EE2842E612C32E0732EBB
:1008D000C9ECD0E028E1522E8EE00E94BD072091A5
:1008E000660130916701280F391F3093C8012093AA
:1008F000C70137FF04C01092C8011092C7011C9BAA
:100900001DC3209170013091710180916A01909115
:100910006B01281739070CF411C38091C101909124
:10092000C201865292400CF009C30E9433087B0139
:100930008C018091A1019091A201A091A301B0919D
:10094000A401E81AF90A0A0B1B0B6091840170914B
:100950008501882777FD8095982F20E63AEE40E0C4
:1009600050E00E94C40AE616F7060807190708F0C7
:10097000E5C2439860917001709171012091C101AD
:100980003091C201621B730B7093B6016093B50185
:100990008091BF019091C001821B930B9093B00195
:1009A0008093AF019B0177FF04C022273327261BCA
:1009B000370B80915C0190915D0128173907D4F4C1
:1009C0009B01442737FD4095542F8091B1019091B0
:1009D000B201A091B301B091B401820F931FA41F83
:1009E000B51F8093B1019093B201A093B301B0936E
:1009F000B40108C01092B1011092B2011092B3017B
:100A00001092B4016091B5017091B601882777FD0D
:100A10008095982F0E94D5097B018C0160913E0141
:100A200070913F01882777FD8095982F0E94D50906
:100A300020E030E048EC52E40E943A099B01AC010E
:100A4000C801B7010E94610A5B016C016091B101AC
:100A50007091B2018091B3019091B4010E94D509C7
:100A60007B018C016091480170914901882777FDD5
:100A70008095982F0E94D50920E030E44CE156E49F
:100A80000E943A099B01AC01C801B7010E94610AAA
:100A90009B01AC01C601B5010E94D6085B016C0147
:100AA0006091AF017091B001882777FD8095982FF4
:100AB0000E94D5097B018C01609152017091530114
:100AC000882777FD8095982F0E94D50920E030E097
:100AD00048EC51E40E943A099B01AC01C801B701FE
:100AE0000E94610A9B01AC01C601B5010E94D608B3
:100AF0006093AB017093AC018093AD019093AE0114
:100B00000E94A2097093B8016093B70161507240CE
:100B100024F07092B8016092B7018091B701909172
:100B2000B80197FF04C01092B8011092B70120914C
:100B3000B9013091BA018091B7019091B80128179D
:100B4000390724F480923501299803C0299A90929C
:100B500035018091B9019091BA0101969093BA0143
:100B60008093B90180509240A1F41092BA01109282
:100B7000B9010FC0299A0E9433086093A1017093B4
:100B8000A2018093A3019093A40101C0299A90929D
:100B900035018091C7019091C801AA2797FDA095C2
:100BA000BA2FE090C301F090C4010091C5011091EB
:100BB000C601E80EF91E0A1F1B1FE092C301F09246
:100BC000C4010093C5011093C60160919F0170910B
:100BD000A0016F5F7F4F7093A00160939F01809190
:100BE0007A0190917B016817790709F58091C1011D
:100BF0009091C2019093C0018093BF019B01442753
:100C000037FD4095542FC801B7010E94F60A309372
:100C1000C2012093C1011092C3011092C40110922D
:100C2000C5011092C6011092A00110929F018091FF
:100C3000C1019091C2018C3391053CF41C9981C192
:100C40008E970CF07EC1439A01C043981D997CC1D8
:100C50001A997AC1299AA89584B7877F84BF0FB65D
:100C6000F89450926000109260000FBE88E391E00B
:100C700060E171E00E94150382E491E062E171E0BD
:100C80000E9415038CE491E064E171E00E94150379
:100C900086E591E066E171E00E94150380E691E04F
:100CA0006AE171E00E94150384E791E06EE171E072
:100CB0000E9415038EE791E062E271E00E94150345
:100CC00088E891E066E271E00E94150382E991E014
:100CD0006AE271E00E941503A89584B7877F84BFFC
:100CE0002BE088E190E00FB6F894A895809360001F
:100CF0000FBE2093600090C00E9433086093BB0138
:100D00007093BC018093BD019093BE018091A901B5
:100D10009091AA0101969093AA018093A901883C21
:100D2000910599F4209170013091710180916C01CD
:100D300090916D012817390744F42F5F3F4F30938E
:100D400071012093700110929C018091A9019091F2
:100D5000AA018855924009F05FC02091700130913E
:100D6000710180916C0190916D010A9728173907E4
:100D70000CF049C0265F3F4F40C01A9949C00E94FD
:100D800033086093BB017093BC018093BD019093C5
:100D9000BE018091A9019091AA0101969093AA01A8
:100DA0008093A901883C910599F4209170013091BC
:100DB000710180916A0190916B018217930744F44D
:100DC00021503040309371012093700110929C01AA
:100DD0008091A9019091AA0188559240E9F420914F
:100DE00070013091710180916A0190916B010A96B6
:100DF0008217930744F42A503040309371012093B6
:100E0000700110929C01D093AA01C093A90104C063
:100E10001092AA011092A9010E9433082091BB01EF
:100E20003091BC014091BD015091BE01621B730B1A
:100E3000840B950B605D77408040904028F4809152
:100E400070019091710161C080919C018823A1F48F
:100E5000809237018AE691E00E9474020E94330872
:100E60006093A5017093A6018093A7019093A801B8
:100E700081E080939C014BC02091C1013091C2015F
:100E8000293231052CF48EE291E00E9462003FC0CD
:100E900082E02632380764F1299A4398A89584B7EE
:100EA000877F84BF88E10FB6F8948093600010922A
:100EB00060000FBE1FEF80E091E00E94620068EECC
:100EC00073E080E090E00E9441081093320110939B
:100ED00033011093340110933501109336011093B0
:100EE000370168EE73E080E090E00E944108E3CFB4
:100EF0004091700150917101C901841B950B0296BC
:100F0000059710F4CA0101C0C9010E947D000E942A
:100F100033082091A5013091A6014091A70150917D
:100F2000A801621B730B840B950B655F71408040B9
:100F3000904010F090923701A895CECC1C9926CE07
:100F400019CE1C9982CE82CE1D9917CFD5CEF99994
:100F5000FECF72BD61BDF89A80B50895F999FECFB4
:100F60001FBA72BD61BD40BD0FB6F894FA9AF99AE6
:100F70000FBE089580939D010895982F8E3008F03C
:100F80009E50977080919D018295880F880F807C7C
:100F9000892B80937C0080917A00806480937A0012
:100FA00080917A0086FDFCCF2091780040917900F5
:100FB000942F80E030E0282B392BC90108951F922F
:100FC0000F920FB60F9211242F933F934F935F937D
:100FD0006F937F938F939F93AF93BF932091CE0195
:100FE0003091CF014091D0015091D1017091D20147
:100FF000DA01C9010296A11DB11D672F6A5F6D3725
:1010000030F06D57DA01C9010396A11DB11D60933F
:10101000D2018093CE019093CF01A093D001B093E1
:10102000D1018091CA019091CB01A091CC01B091E6
:10103000CD010196A11DB11D8093CA019093CB01F2
:10104000A093CC01B093CD01BF91AF919F918F91AF
:101050007F916F915F914F913F912F910F900FBEB4
:101060000F901F9018958FB7F8942091CE01309172
:10107000CF014091D0015091D1018FBFB901CA0178
:1010800008959B01AC017FB7F8948091CA019091BB
:10109000CB01A091CC01B091CD0166B5A89B05C054
:1010A0006F3F19F00196A11DB11D7FBFBA2FA92F67
:1010B000982F8827860F911DA11DB11D63E0880F11
:1010C000991FAA1FBB1F6A95D1F7BC012DC0FFB79E
:1010D000F8948091CA019091CB01A091CC01B0917C
:1010E000CD01E6B5A89B05C0EF3F19F00196A11D03
:1010F000B11DFFBFBA2FA92F982F88278E0F911DE2
:10110000A11DB11DE3E0880F991FAA1FBB1FEA951F
:10111000D1F7861B970B885E9340C8F22150304070
:101120004040504068517C4F211531054105510523
:1011300071F60895789484B5826084BD84B5816029
:1011400084BD85B5826085BD85B5816085BDEEE6CF
:10115000F0E0808181608083E1E8F0E010828081AE
:1011600082608083808181608083E0E8F0E080811C
:1011700081608083E1EBF0E0808184608083E0EB3C
:10118000F0E0808181608083EAE7F0E08081846024
:101190008083808182608083808181608083808180
:1011A000806880831092C10008955058BB27AA27F9
:1011B0000ED04DC13ED130F043D120F031F49F3FED
:1011C00011F41EF433C10EF4E095E7FB29C1E92FB9
:1011D0004FD180F3BA17620773078407950718F099
:1011E00071F49EF567C10EF4E0950B2EBA2FA02D79
:1011F0000B01B90190010C01CA01A0011124FF27C4
:10120000591B99F0593F50F4503E68F11A16F040BE
:10121000A22F232F342F4427585FF3CF46953795BD
:101220002795A795F0405395C9F77EF41F16BA0B82
:10123000620B730B840BBAF09150A1F0FF0FBB1F30
:10124000661F771F881FC2F70EC0BA0F621F731F79
:10125000841F48F4879577956795B795F7959E3FD6
:1012600008F0B3CF9395880F08F09927EE0F979564
:10127000879508950CD0EBC0E3D040F0DAD030F081
:1012800021F45F3F19F0CCC0511115C1CFC0F0D08F
:1012900098F39923C9F35523B1F3951B550BBB273D
:1012A000AA2762177307840738F09F5F5F4F220FEA
:1012B000331F441FAA1FA9F333D00E2E3AF0E0E8E3
:1012C00030D091505040E695001CCAF729D0FE2F2F
:1012D00027D0660F771F881FBB1F261737074807C1
:1012E000AB07B0E809F0BB0B802DBF01FF27935877
:1012F0005F4F2AF09E3F510568F092C0DCC05F3F0F
:10130000ECF3983EDCF3869577956795B795F7955E
:101310009F5FC9F7880F911D9695879597F9089556
:10132000E1E0660F771F881FBB1F621773078407F2
:10133000BA0720F0621B730B840BBA0BEE1F88F701
:10134000E095089504D06894B111B5C0089598D07F
:1013500088F09F5790F0B92F9927B751A0F0D1F09E
:10136000660F771F881F991F1AF0BA95C9F712C028
:10137000B13081F09FD0B1E008959CC0672F782FE5
:101380008827B85F39F0B93FCCF386957795679594
:10139000B395D9F73EF490958095709561957F4F00
:1013A0008F4F9F4F0895E89409C097FB3EF49095A6
:1013B0008095709561957F4F8F4F9F4F9923A9F02E
:1013C000F92F96E9BB279395F695879577956795BD
:1013D000B795F111F8CFFAF4BB0F11F460FF1BC001
:1013E0006F5F7F4F8F4F9F4F16C0882311F096E994
:1013F00011C0772321F09EE8872F762F05C0662342
:1014000071F096E8862F70E060E02AF09A95660FFA
:10141000771F881FDAF7880F9695879597F90895B3
:1014200097F99F6780E870E060E008959FEF80EC97
:10143000089500240A94161617061806090608953A
:1014400000240A9412161306140605060895092EA0
:101450000394000C11F4882352F0BB0F40F4BF2B0F
:1014600011F460FF04C06F5F7F4F8F4F9F4F08954F
:1014700057FD9058440F551F59F05F3F71F0479545
:10148000880F97FB991F61F09F3F79F0879508952A
:10149000121613061406551FF2CF4695F1DF08C049
:1014A000161617061806991FF1CF86957105610566
:1014B00008940895E894BB2766277727CB0197F90E
:1014C00008950BD0C4CFB5DF28F0BADF18F095230C
:1014D00009F0A6CFABCF1124EECFCADFA0F3959FC2
:1014E000D1F3950F50E0551F629FF001729FBB270B
:1014F000F00DB11D639FAA27F00DB11DAA1F649FB7
:101500006627B00DA11D661F829F2227B00DA11D69
:10151000621F739FB00DA11D621F839FA00D611DEF
:10152000221F749F3327A00D611D231F849F600D10
:10153000211D822F762F6A2F11249F5750408AF049
:10154000E1F088234AF0EE0FFF1FBB1F661F771FD5
:10155000881F91505040A9F79E3F510570F060CF11
:10156000AACF5F3FECF3983EDCF3869577956795BD
:10157000B795F795E7959F5FC1F7FE2B880F911DF3
:101580009695879597F90895629FD001739FF00112
:10159000829FE00DF11D649FE00DF11D929FF00D03
:1015A000839FF00D749FF00D659FF00D9927729F3A
:1015B000B00DE11DF91F639FB00DE11DF91FBD01C5
:1015C000CF011124089597FB092E07260AD077FD35
:1015D00004D027D006D000201AF4709561957F4F73
:1015E0000895F6F7909581959F4F089597FB092EE2
:1015F00005260ED057FD04D028D00AD0001C38F4A0
:1016000050954095309521953F4F4F4F5F4F08952E
:10161000F6F790958095709561957F4F8F4F9F4F0E
:101620000895AA1BBB1B51E107C0AA1FBB1FA61729
:10163000B70710F0A61BB70B881F991F5A95A9F77B
:1016400080959095BC01CD010895A1E21A2EAA1BA8
:10165000BB1BFD010DC0AA1FBB1FEE1FFF1FA21762
:10166000B307E407F50720F0A21BB30BE40BF50B5F
:10167000661F771F881F991F1A9469F760957095E8
:10168000809590959B01AC01BD01CF010895F89420
:02169000FFCF8A
:1016920046414E0043524100444C450052535400CF
:1016A20050004900440049544800544F46004156F6
:1016B2004700534C500046534C00465348002D2DD2
:1016C2002D00FFFFFFFFFFFF0000E7038A028A02EF
:1016D20002030000E7030F000F0004050000E70308
:1016E200F401F4010607000064002D002D00080932
:1016F2009CFF6400210021000A0B3200F4014B0020
:101702004B000C0D6400E703FA00FA000E0F000014
:101712001E000A000A0010117800B400960096001C
:0E17220012132C0190013B013B011415010133
:00000001FF
