:100000000C943B000C9467000C9467000C94670000
:100010000C9467000C9467000C9467000C946700C4
:100020000C9467000C9467000C9467000C94920287
:100030000C941D020C9467000C9467000C946700EC
:100040000C9459080C9467000C9467000C9467009A
:100050000C9467000C9467000C9467000C94670084
:100060000C9467000C9467004E0242024402460260
:1000700048024A024C02A89584B78093E50184B7F0
:10008000877F84BF88E10FB6F89480936000109258
:1000900060000FBE11241FBECFEFD8E0DEBFCDBF82
:1000A00011E0A0E0B1E0E4ECF7E102C005900D92B0
:1000B000A63AB107D9F721E0A6EAB1E001C01D9246
:1000C000A53EB207E1F70E94FD040C94E00B0C94EE
:1000D0000000CF93DF93EC018E819F8128813981CD
:1000E000821793072CF02A813B812817390724F4C3
:1000F0008C819D819F838E836F81888590E00E9493
:10010000D20B89856E8190E0DF91CF910C94D20B58
:100110001F93CF93DF93EC01888590E00E94CA0B78
:10012000182F898590E00E94CA0B212F30E0322FD2
:100130002227282B888199812817390744F08A8142
:100140009B81821793071CF03F832E8304C08C8110
:100150009D819F838E83DF91CF911F910895809120
:100160005F019091600190936201809361018091A1
:1001700055019091560190935801809357018091B9
:100180004B0190914C0190934E0180934D018091D1
:1001900041019091420190934401809343018091E9
:1001A00037019091380190933A0180933901809101
:1001B0002D0190912E019093300180932F01809119
:1001C0002301909124019093260180932501809131
:1001D000190190911A0190931C0180931B01809149
:1001E0000F01909110019093120180931101809161
:1001F00005019091060190930801809307018BE51A
:1002000091E00E94690081E591E00E94690087E425
:1002100091E00E9469008DE391E00E94690083E310
:1002200091E00E94690089E291E00E9469008FE1FB
:1002300091E00E94690085E191E00E9469008BE0F5
:1002400091E00E94690081E091E00C94690081E0F6
:100250008093D801EBEDF1E0808181608083089587
:100260001092D801EBEDF1E08081816080830895E8
:1002700081E08093D901EBEDF1E0808181608083A2
:1002800008951092D901EBEDF1E0808181608083C7
:10029000089597FF0BC021E02093D8012093D90146
:1002A0002093DA0191958195910904C01092D901AA
:1002B0001092DA012AE030E0B9010E94450B8093E8
:1002C000D501CB01B9010E94450B8093D601CB012A
:1002D000B9010E94450B8093D7018091DB018160B9
:1002E0008093DB010895643409F45BC040F5673006
:1002F00009F44DC090F4633009F447C038F461301C
:1003000009F467C008F03FC090E564C0653009F4A7
:1003100058C008F04AC097E15DC06D32F1F140F479
:100320006930C9F1B0F16A3209F051C096E352C0A8
:100330006134A9F1633409F04AC090EF4BC06F34C7
:10034000E1F180F4683499F128F4663461F168F5DC
:1003500090EB40C06C3469F16E3469F16934B9F5E1
:100360009FED38C0643579F138F4623541F148F5D4
:10037000603569F594E32EC0663539F130F16F3F91
:1003800031F59FEF27C098E325C09AE123C09EE591
:1003900021C090E11FC096E11DC09FEB1BC094E1FE
:1003A00019C099E117C094EB15C090E913C095E905
:1003B00011C091EF0FC094E50DC099E90BC09DEB02
:1003C00009C092E907C091EB05C099ED03C09FEE0B
:1003D00001C09FE541119F7EE82FF0E0EB59FE4FF1
:1003E000908308952FB7F894E1E8F0E080818C7F46
:1003F0008083808184608083A0E8B0E08C918C7FD2
:100400008C9380818860808380818F7E80838C91B3
:100410008F708C9380E892E090938900809388009D
:1004200088E090E090938B0080938A00EFE6F0E004
:100430008081866080832FBF08951F920F920FB630
:100440000F9211242F938F939F93AF93BF93EF93AA
:10045000FF938091A9018F5F883119F08093A901E2
:1004600002C01092A9018091A901877090E0FC015F
:100470003197E730F10520F4EC5CFF4F0C94780BDA
:100480008EEF0DC08BEF0BC087EF09C08FEE07C05A
:100490008FED05C08FEB03C08FE701C08DEF9FEF9D
:1004A0009BB99091A901969596959695913089F072
:1004B00050F09230A9F42E9A90916701982B9BB935
:1004C00028982F9810C0289A90916501982B9BB975
:1004D00008C02F9A90916601982B9BB9289802C06A
:1004E00028982F982E9880918A0090918B008038C0
:1004F000924019F488E090E005C080918A009091C4
:100500008B00089690938B0080938A00FF91EF9167
:10051000BF91AF919F918F912F910F900FBE0F9030
:100520001F9018951F920F920FB60F9211242F93C0
:100530008F939F939091D40183B180958927909157
:10054000A801982390959093A8012091A7012823B2
:1005500029272093A701892382239091D4019827EA
:100560009093D4012091D4019091D3012823292B79
:100570002093D3018091D401847219F484E1809393
:10058000A6018091A601815019F08093A6010BC0AD
:1005900086E08093A6018091D4019091D20184726B
:1005A000892B8093D2019F918F912F910F900FBE35
:1005B0000F901F901895F8949091D30189239091F2
:1005C000D30198279093D30178940895F89490914B
:1005D000D20189239091D20198279093D2017894E7
:1005E0000895F8949091D401909589230C94DB029E
:1005F0009091D30189230E94E6020C94DB02909132
:10060000D301909589230C94E6029091D30198230D
:10061000981711F080E001C0892F0C94DB02A89597
:1006200084B7877F84BF88E10FB6F8948093600019
:10063000109260000FBE0895A89584B7877F84BF8D
:100640002BE088E190E00FB6F894A89580936000C5
:100650000FBE209360000895EF92FF920F931F93B7
:10066000CF93DF938091DB0180FF18C0EFB6F89441
:1006700008ED11E0C5EDD1E0F12CF80141918F01B9
:1006800069918F2D0E947301F394F3E0FF12F5CF6F
:100690008091DB018E7F8093DB01EFBEDF91CF91F4
:1006A0001F910F91FF90EF9008958FEF8093D501E8
:1006B0008093D6018093D7011092D8011092D9016E
:1006C0001092DA01EBEDF1E08081816080830C947F
:1006D0002C032FEF2093D5012093D6012093D7012F
:1006E0001092D8011092D9011092DA01E8EDF1E0F0
:1006F000DC012D91CD01211107C08091DB018160CA
:100700008093DB010C942C032293B1E0E53DFB07C1
:1007100079F7F3CF009721F489E691E00C9469030F
:100720000C944901299A1C9B1DC08DE691E00E9402
:10073000690368EE73E080E090E00E94D20881E7F0
:1007400091E00E94690360ED77E080E090E00E9414
:10075000D2080E94550368EE73E080E090E00E94AA
:10076000D208E1CF439868EB7BE080E090E00E9404
:10077000D20883E10E9438092091110130911201C1
:100780008217930738F0209107013091080128174C
:100790003907F0F4439A89E691E00E94690368EE14
:1007A00073E080E090E00E94D20885E791E00E942B
:1007B000690360ED77E080E090E00E94D2080E943B
:1007C000550368EE73E080E090E00E94D208E3CF2A
:1007D000439A0895299A219A84B18B7D84B985B171
:1007E000846285B924982C9A439A3B9A8AB18FEFF8
:1007F0008AB984B1816C84B90E94F20180E00E94C0
:10080000350980E090E00E94CA0B823239F00E94E4
:10081000AF0062E280E090E00E94D20B1D992CC0F4
:100820001A992AC00E94AF008BE591E00E948800CF
:1008300081E591E00E94880087E491E00E948800B1
:100840008DE391E00E94880083E391E00E9488009C
:1008500089E291E00E9488008FE191E00E94880087
:1008600085E191E00E9488008BE091E00E94880081
:1008700081E091E00C9488001D99D6CF89E691E043
:100880000E9469030E942C0368EE73E080E090E010
:100890000E94D20889E791E00E9469030E942C031C
:1008A00068EE73E080E090E00E94D208439864EF25
:1008B00071E080E090E00E94D20883E10E94380954
:1008C0000E9449010E942C03F2CF1F93CF93DF9324
:1008D000EC01CB010E9469036EEE72E080E090E0D3
:1008E0000E94D20880E20E94F102882349F08E81A2
:1008F0009F812A813B818217930744F501960DC0A1
:1009000084E00E94F102882359F08E819F81288122
:10091000398128173907D4F401979F838E8316C035
:1009200080E20E94F802811105C080E20E94FF026D
:10093000882349F12E813F818A819B810A9728175C
:10094000390724F4265F3F4F3F832E8311E08E81C9
:100950009F810E9449010E942C03113019F20E94CC
:1009600038010E942C03CE010E94690068EE73E0FA
:1009700080E090E00E94D2080E944101DF91CF9177
:100980001F910C942C0384E00E94F80281110DC089
:1009900084E00E94FF02811108C084E20E940503E6
:1009A00011E08823A1F210E0D2CF2E813F8188810F
:1009B00099810A96821793074CF62A503109C4CFC1
:1009C00081E08093D50194E09093D6018093D70184
:1009D0001092D8011092D9018093DA01EBEDF1E089
:1009E0008081816080830E942C0360ED77E080E04D
:1009F00090E00E94D2080C9455030E94FA080E94CD
:100A0000EA03299A43988091E50190E00E94490108
:100A100014BE68EE73E080E090E00E94D2088091FE
:100A2000E50183FF15C0299A43988DE791E00E9464
:100A3000690368EE73E080E090E00E94D2080E94B3
:100A4000550368EE73E080E090E00E94D208EDCF9D
:100A50000E94E0040E9492030E941C03C0E0D2E0C6
:100A600011E08EE00E9438092091390130913A015D
:100A7000280F391F37FD05C03093D1012093D001D5
:100A800004C01092D1011092D00180912F01909159
:100A90003001009779F11C9B39C0209129013091D8
:100AA0002A018217930794F18091CA019091CB019A
:100AB000863292405CF50E94A3086B017C01809114
:100AC000CC019091CD01A091CE01B091CF01C81A77
:100AD000D90AEA0AFB0AA0911B01B0911C0120E689
:100AE0003AEE0E947E0BC616D706E806F90608F411
:100AF000C6C10CC0299A0E94A3086093CC017093D0
:100B0000CD018093CE019093CF0103C01C9BF2CF07
:100B1000299A0E9430016091D0017091D1018827FB
:100B200077FD8095982FC090B401D090B501E090EA
:100B3000B601F090B7016C0D7D1D8E1D9F1D609359
:100B4000B4017093B5018093B6019093B7012091E1
:100B5000B2013091B3012F5F3F4F3093B301209327
:100B6000B201409125015091260124173507F1F477
:100B70004091CA015091CB015093C7014093C601E7
:100B8000442737FD4095542F0E94590B3093CB01D9
:100B90002093CA011092B4011092B5011092B601CF
:100BA0001092B7011092B3011092B2018091CA0164
:100BB0009091CB018C3391053CF41C9904C08E9725
:100BC00014F4439A02C01C99439880E20E94F102F7
:100BD0008823D9F00E94A3086093AE017093AF01FF
:100BE0008093B0019093B10180912F0190913001D9
:100BF000009709F44BC020912B0130912C018217F2
:100C000093070CF058C0019652C084E00E94F10294
:100C1000882311F10E94A3086093AE017093AF0185
:100C20008093B0019093B10180912F019091300198
:100C30002091290130912A012817390714F40197CE
:100C400036C08217930709F083C0109230011092CA
:100C50002F01109300017CC080E20E94F8028111F4
:100C600005C080E20E94FF02882341F10E94A30890
:100C70006093AE017093AF018093B0019093B10186
:100C800080912F0190913001009729F480912901E2
:100C900090912A010CC020912B0130912C01A901C7
:100CA0004A505109841795070CF0FEC10A9690939B
:100CB000300180932F01109200014AC084E00E940D
:100CC000F8028111D6C184E00E94FF028111D1C1D6
:100CD00084E20E9405038823D9F1299A0E940F0318
:100CE00061E971E08BE591E00E94650461E871E0E3
:100CF00081E591E00E94650467E771E087E491E097
:100D00000E94650463E871E08DE391E00E94650450
:100D100067E871E083E391E00E9465046BE871E0AD
:100D20008FE191E00E9465046FE871E085E191E058
:100D30000E94650463E971E08BE091E00E94650424
:100D400067E971E081E091E00E9465040E941C0364
:100D50000E94A308C090AE01D090AF01E090B00116
:100D6000F090B1016C197D098E099F09603D7740B3
:100D70008105910538F480912F01909130010E94F6
:100D80008A0361C080910001811113C00E94380163
:100D900089E291E00E9469000E94A3086093AA0181
:100DA0007093AB018093AC019093AD01109300015F
:100DB0004AC08091CA019091CB018932910574F4A7
:100DC00080912F0190913001892B19F489E691E0EF
:100DD00002C08BE991E00E94690335C0863242E08F
:100DE00094070CF1299A43980E940F038FE991E030
:100DF0000E94690368EE73E080E090E00E94D208F0
:100E000082EA91E00E94690360ED77E080E090E083
:100E10000E94D2080E94550368EE73E080E090E0E3
:100E20000E94D208E3CF20912F0130913001AC0114
:100E3000421B530B9A012E5F3F4F2530310508F4BA
:100E40009ACF0E9449010E94A308C090AA01D090A5
:100E5000AB01E090AC01F090AD016C197D098E09F9
:100E60009F09653F71408105910510F00E94410185
:100E70008091DB0180FD0E942C03A895F2CD439860
:100E80008091CA019091CB0140912F015091300186
:100E9000481B590B5093C9014093C801E090C6010B
:100EA000F090C701E81AF90AF092C501E092C40176
:100EB000FA0157FF04C0EE27FF27E41BF50B209132
:100EC000430130914401BA01882777FD8095982F1E
:100ED000E217F307ACF48090C0019090C101A0909C
:100EE000C201B090C301860E971EA81EB91E809243
:100EF000C0019092C101A092C201B092C30108C08A
:100F00001092C0011092C1011092C2011092C3014F
:100F10000E94560A4B015C0160916101709162016F
:100F2000882777FD8095982F0E94560A20E030E0B0
:100F300048EC52E40E94BB099B01AC01C501B4011D
:100F40000E94E20A4B015C016091C0017091C101F5
:100F50008091C2019091C3010E94560A2B013C016D
:100F60006091570170915801882777FD8095982FDF
:100F70000E94560A20E030E44CE156E40E94BB098E
:100F80009B01AC01C301B2010E94E20A9B01AC01CA
:100F9000C501B4010E9457094B015C01B7018827C4
:100FA00077FD8095982F0E94560A6B017C01609115
:100FB0004D0170914E01882777FD8095982F0E94F2
:100FC000560A20E030E048EC51E40E94BB099B0146
:100FD000AC01C701B6010E94E20A9B01AC01C50148
:100FE000B4010E9457096093BC017093BD018093C6
:100FF000BE019093BF010E94230A613042E0740752
:101000002CF47093BB016093BA0104C0D093BB0170
:10101000C093BA018091BA019091BB0197FF04C0BF
:101020001092BB011092BA012091B8013091B90120
:101030008091BA019091BB012817390724F40E94CE
:101040002701299803C0299A0E9430018091B80194
:101050009091B9010196811552E0950729F090937E
:10106000B9018093B80157CD1092B9011092B8011F
:1010700052CD0E94A3086093AE017093AF0180939C
:10108000B0019093B10120912F01309130018091F6
:10109000290190912A01AC01465F5F4F4217530727
:1010A0000CF005CE2A5031093093300120932F01E6
:1010B00002CE1F920F920FB60F9211242F933F93DF
:1010C0008F939F93AF93BF938091DD019091DE0149
:1010D000A091DF01B091E0013091DC0126E0230F07
:1010E0002D3720F40296A11DB11D05C029E8230F5C
:1010F0000396A11DB11D2093DC018093DD01909327
:10110000DE01A093DF01B093E0018091E1019091B5
:10111000E201A091E301B091E4010196A11DB11D8E
:101120008093E1019093E201A093E301B093E40185
:10113000BF91AF919F918F913F912F910F900FBED3
:101140000F901F9018952FB7F8946091DD01709162
:10115000DE018091DF019091E0012FBF08953FB73C
:10116000F8948091E1019091E201A091E301B091A6
:10117000E40126B5A89B05C02F3F19F00196A11DDB
:10118000B11D3FBF6627782F892F9A2F620F711DDF
:10119000811D911D43E0660F771F881F991F4A9597
:1011A000D1F70895CF92DF92EF92FF92CF93DF9322
:1011B0006B017C010E94AF08EB01C114D104E10472
:1011C000F10489F00E9455090E94AF086C1B7D0B49
:1011D000683E734090F381E0C81AD108E108F10835
:1011E000C851DC4FEACFDF91CF91FF90EF90DF90B5
:1011F000CF900895789484B5826084BD84B5816071
:1012000084BD85B5826085BD85B5816085BDEEE60E
:10121000F0E0808181608083E1E8F0E010828081ED
:1012200082608083808181608083E0E8F0E080815B
:1012300081608083E1EBF0E0808184608083E0EB7B
:10124000F0E0808181608083EAE7F0E08081846063
:10125000808380818260808380818E7F8083808193
:10126000806880831092C10008958093680108957A
:101270008E3008F08E5087702091680190E4299F8D
:1012800090011124822B80937C0080917A008064ED
:1012900080937A0080917A0086FDFCCF809178005F
:1012A0002091790090E0922B089508955058BB2723
:1012B000AA270ED04DC13ED130F043D120F031F4F9
:1012C0009F3F11F41EF433C10EF4E095E7FB29C1F2
:1012D000E92F4FD180F3BA17620773078407950788
:1012E00018F071F49EF567C10EF4E0950B2EBA2F3D
:1012F000A02D0B01B90190010C01CA01A00111241C
:10130000FF27591B99F0593F50F4503E68F11A16C7
:10131000F040A22F232F342F4427585FF3CF469558
:1013200037952795A795F0405395C9F77EF41F167A
:10133000BA0B620B730B840BBAF09150A1F0FF0F44
:10134000BB1F661F771F881FC2F70EC0BA0F621F30
:10135000731F841F48F4879577956795B795F79520
:101360009E3F08F0B3CF9395880F08F09927EE0FB2
:101370009795879508950CD0EBC0E3D040F0DAD074
:1013800030F021F45F3F19F0CCC0511115C1CFC02E
:10139000F0D098F39923C9F35523B1F3951B550B5E
:1013A000BB27AA2762177307840738F09F5F5F4F38
:1013B000220F331F441FAA1FA9F333D00E2E3AF079
:1013C000E0E830D091505040E695001CCAF729D093
:1013D000FE2F27D0660F771F881FBB1F26173707E2
:1013E0004807AB07B0E809F0BB0B802DBF01FF2712
:1013F00093585F4F2AF09E3F510568F092C0DCC0C1
:101400005F3FECF3983EDCF3869577956795B7954B
:10141000F7959F5FC9F7880F911D9695879597F966
:101420000895E1E0660F771F881FBB1F62177307DF
:101430008407BA0720F0621B730B840BBA0BEE1FF4
:1014400088F7E095089504D06894B111B5C0089567
:1014500098D088F09F5790F0B92F9927B751A0F0F6
:10146000D1F0660F771F881F991F1AF0BA95C9F738
:1014700012C0B13081F09FD0B1E008959CC0672FB9
:10148000782F8827B85F39F0B93FCCF386957795E8
:101490006795B395D9F73EF49095809570956195D1
:1014A0007F4F8F4F9F4F0895E89409C097FB3EF4FC
:1014B00090958095709561957F4F8F4F9F4F9923A1
:1014C000A9F0F92F96E9BB279395F695879577951F
:1014D0006795B795F111F8CFFAF4BB0F11F460FFDF
:1014E0001BC06F5F7F4F8F4F9F4F16C0882311F037
:1014F00096E911C0772321F09EE8872F762F05C04B
:10150000662371F096E8862F70E060E02AF09A95E5
:10151000660F771F881FDAF7880F9695879597F9DA
:10152000089597F99F6780E870E060E008959FEF65
:1015300080EC089500240A9416161706180609066A
:10154000089500240A941216130614060506089539
:10155000092E0394000C11F4882352F0BB0F40F4C1
:10156000BF2B11F460FF04C06F5F7F4F8F4F9F4F01
:10157000089557FD9058440F551F59F05F3F71F083
:101580004795880F97FB991F61F09F3F79F08795EA
:101590000895121613061406551FF2CF4695F1DF73
:1015A00008C0161617061806991FF1CF8695710503
:1015B000610508940895E894BB2766277727CB0137
:1015C00097F908950BD0C4CFB5DF28F0BADF18F033
:1015D000952309F0A6CFABCF1124EECFCADFA0F33D
:1015E000959FD1F3950F50E0551F629FF001729FB8
:1015F000BB27F00DB11D639FAA27F00DB11DAA1FD7
:10160000649F6627B00DA11D661F829F2227B00D23
:10161000A11D621F739FB00DA11D621F839FA00DAE
:10162000611D221F749F3327A00D611D231F849FFE
:10163000600D211D822F762F6A2F11249F57504055
:101640008AF0E1F088234AF0EE0FFF1FBB1F661FF0
:10165000771F881F91505040A9F79E3F510570F0A9
:1016600060CFAACF5F3FECF3983EDCF38695779589
:101670006795B795F795E7959F5FC1F7FE2B880FA4
:10168000911D9695879597F9089597FB072E16F467
:10169000009407D077FD09D00E94850B07FC05D088
:1016A0003EF4909581959F4F0895709561957F4F79
:1016B0000895052E97FB1EF400940E94700B57FDB1
:1016C00007D00E94990B07FC03D04EF40C94700BCA
:1016D00050954095309521953F4F4F4F5F4F08955E
:1016E00090958095709561957F4F8F4F9F4F08958E
:1016F000EE0FFF1F0590F491E02D09940E94BB0BA3
:10170000B7FF0895821B930B0895AA1BBB1B51E1E1
:1017100007C0AA1FBB1FA617B70710F0A61BB70B61
:10172000881F991F5A95A9F780959095BC01CD0106
:101730000895A1E21A2EAA1BBB1BFD010DC0AA1F12
:10174000BB1FEE1FFF1FA217B307E407F50720F02A
:10175000A21BB30BE40BF50B661F771F881F991FA5
:101760001A9469F760957095809590959B01AC01EE
:10177000BD01CF010895A29FB001B39FC001A39FF7
:10178000700D811D1124911DB29F700D811D1124BA
:10179000911D0895F999FECF92BD81BDF89A9927C0
:1017A00080B50895262FF999FECF1FBA92BD81BD4D
:1017B00020BD0FB6F894FA9AF99A0FBE01960895D3
:0417C000F894FFCFCB
:1017C400012C0190016801680114157800B4009699
:1017D400009600121300001E000A000A0010116493
:1017E40000E703FA00FA000E0F3200F4014B004B3D
:1017F400000C0D9CFF6400210021000A0B00006412
:10180400002D002D0008090000E703F401F401068F
:10181400070000E7030F000F0004050000E7038A38
:10182400028A020203FFFFFF0146414E0043524178
:1018340000444C45005350440054535400525354F4
:1018440000490049544800544F460041564700534C
:101854004C500046534C00465348002D2D2D002A71
:0618640043004552520052
:00000001FF
