:100000000C943B000C9467000C9467000C94670000
:100010000C9467000C9467000C9467000C946700C4
:100020000C9467000C9467000C9467000C94840295
:100030000C940F020C9467000C9467000C946700FA
:100040000C94CE080C9467000C9467000C94670025
:100050000C9467000C9467000C9467000C94670084
:100060000C9467000C946700400234023602380298
:100070003A023C023E0211241FBECFEFD4E0DEBFA5
:10008000CDBFA89584B78093F00184B7877F84BFE4
:1000900088E10FB6F89480936000109260000FBE64
:1000A00011E0A0E0B1E0E4EBF8E102C005900D92B0
:1000B000A03BB107D9F721E0A0EBB1E001C01D9250
:1000C000A03FB207E1F70E9440050C94CB090C94C5
:1000D0000000EF92FF920F931F93CF93DF931F9235
:1000E000CDB7DEB77C01FC0100811181C8016983B5
:1000F0000E94BD0B6981681719F0C8010E94C50BE9
:10010000C7010F90DF91CF911F910F91FF90EF905A
:1001100008950F931F93CF93DF9300D0CDB7DEB731
:100120008C01FC01868197812081318182179307A0
:100130002CF022813381281739072CF4F8018481AF
:10014000958197838683F8016781808590E09A8303
:100150008983CE0101960E946900F801668181853C
:1001600090E09A838983CE0101960E9469000F90E6
:100170000F90DF91CF911F910F9108951F93CF930F
:10018000DF93EC01888590E00E94BD0B182F8985D4
:1001900090E00E94BD0B212F30E0322F2227282B28
:1001A000888199812817390744F08A819B818217B9
:1001B00093071CF03F832E8304C08C819D819F8315
:1001C0008E83DF91CF911F91089580916901909165
:1001D0006A0190936C0180936B0180915F01909113
:1001E000600190936201809361018091550190912B
:1001F0005601909358018093570180914B01909143
:100200004C0190934E0180934D018091410190915A
:100210004201909344018093430180913701909172
:10022000380190933A018093390180912D0190918A
:100230002E019093300180932F01809123019091A2
:100240002401909326018093250110921C011092A5
:100250001B0180910F0190911001909312018093E6
:1002600011018091050190910601909308018093FE
:10027000070185E691E00E9489008BE591E00E94EC
:10028000890081E591E00E94890087E491E00E9465
:1002900089008DE391E00E94890083E391E00E9450
:1002A000890089E291E00E9489008FE191E00E943B
:1002B000890085E191E00E9489008BE091E00E9435
:1002C000890081E091E00C948900643409F45BC0FA
:1002D00040F5673009F44DC090F4633009F447C02D
:1002E00038F4613009F467C008F03FC090E564C09D
:1002F000653009F458C008F04AC097E15DC06D321E
:10030000F1F140F46930C9F1B0F16A3209F051C03D
:1003100096E352C06134A9F1633409F04AC090EF0A
:100320004BC06F34E1F180F4683499F128F46634FD
:1003300061F168F590EB40C06C3469F16E3469F19D
:100340006934B9F59FED38C0643579F138F4623518
:1003500041F148F5603569F594E32EC0663539F111
:1003600030F16F3F31F59FEF27C098E325C09AE148
:1003700023C09EE521C090E11FC096E11DC09FEB08
:100380001BC094E119C099E117C094EB15C090E926
:1003900013C095E911C091EF0FC094E50DC099E924
:1003A0000BC09DEB09C092E907C091EB05C099ED28
:1003B00003C09FEE01C09FE541119F7EE82FF0E052
:1003C000E159FE4F908308952FB7F894E1E8F0E0EB
:1003D00080818C7F8083808184608083A0E8B0E00E
:1003E0008C918C7F8C9380818860808380818F7ECC
:1003F00080838C918F708C9380E892E09093890039
:100400008093880088E090E090938B0080938A002E
:10041000EFE6F0E08081866080832FBF08951F9211
:100420000F920FB60F9211242F938F939F93AF9338
:10043000BF93EF93FF938091B3018F5F883119F0E1
:100440008093B30102C01092B3018091B301877011
:1004500090E0FC013197E730F10520F4EC5CFF4FB0
:100460000C94060C8EEF0DC08BEF0BC087EF09C00C
:100470008FEE07C08FED05C08FEB03C08FE701C083
:100480008DEF9FEF9BB99091B301969596959695B8
:10049000913089F050F09230A9F42E9A9091710128
:1004A000982B9BB928982F9810C0289A90916F018B
:1004B000982B9BB908C02F9A90917001982B9BB9EB
:1004C000289802C028982F982E9880918A009091A1
:1004D0008B008038924019F488E090E005C080914C
:1004E0008A0090918B00089690938B0080938A00ED
:1004F000FF91EF91BF91AF919F918F912F910F90AD
:100500000FBE0F901F9018951F920F920FB60F926B
:1005100011242F938F939F939091DF0183B1809546
:1005200089279091B201982390959093B2012091E0
:10053000B101282329272093B10189238223909197
:10054000DF0198279093DF012091DF019091DE0178
:100550002823292B2093DE018091DF01847219F476
:1005600084E18093B0018091B001815019F08093B3
:10057000B0010BC088E08093B0018091DF019091C1
:10058000DD018472892B8093DD018091DC018F5F16
:100590008093DC01833310F01092DC019F918F91E6
:1005A0002F910F900FBE0F901F901895F894909177
:1005B000DE0189239091DE0198279093DE017894E3
:1005C0000895F8949091DD0189239091DD01982799
:1005D0009093DD0178940895F8949091DF019095BF
:1005E00089230C94D6029091DE0189230E94E102B6
:1005F0000C94D6029091DE01909589230C94E1022F
:100600009091DE019823981711F080E001C0892FA6
:100610000C94D6029091DE019823981390E080917B
:10062000DF0189230895A89584B7877F84BF88E177
:100630000FB6F89480936000109260000FBE08958A
:10064000A89584B7877F84BF2BE088E190E00FB640
:10065000F894A895809360000FBE209360000895E1
:10066000EF92FF920F931F93CF93DF938091E60158
:1006700080FF18C0EFB6F89403EE11E0C0EED1E0B1
:10068000F12CF80141918F0169918F2D0E94650134
:10069000F394F3E0FF12F5CF8091E6018E7F809313
:1006A000E601EFBEDF91CF911F910F91FF90EF9088
:1006B00008958FEF8093E0018093E1018093E20140
:1006C0001092E3011092E4011092E501E6EEF1E0F0
:1006D0008081816080830C9430032FEF2093E001B0
:1006E0002093E1012093E2011092E3011092E401D2
:1006F0001092E501E3EEF1E0DC012D91CD01211135
:1007000007C08091E60181608093E6010C9430037C
:100710002293B1E0E03EFB0779F7F3CF299A1C9BC7
:100720001DC083E791E00E946D0368EE73E080E0F6
:1007300090E00E94470987E791E00E946D0360ED19
:1007400077E080E090E00E9447090E94590368EE3C
:1007500073E080E090E00E944709E1CF439868EBA6
:100760007BE080E090E00E94470983E10E94AD09B0
:1007700020911101309112018217930738F02091D6
:1007800007013091080128173907F0F4439A8BE7E5
:1007900091E00E946D0368EE73E080E090E00E94BB
:1007A00047098FE791E00E946D0360ED77E080E0FC
:1007B00090E00E9447090E94590368EE73E080E0D0
:1007C00090E00E944709E3CF439A089581E0809327
:1007D000E301E6EEF1E08081816080830C943003D8
:1007E0001092E301E6EEF1E08081816080830C9459
:1007F000300381E08093E401E6EEF1E080818160E6
:1008000080830C9430031092E401E6EEF1E08081E5
:10081000816080830C94300397FF0BC021E020930C
:10082000E3012093E4012093E501919581959109DD
:1008300004C01092E4011092E5012AE030E0B90111
:100840000E94D30B8093E001CB01B9010E94D30B2E
:100850008093E101CB01B9010E94D30B8093E201A7
:100860008091E60181608093E6010C943003299A1F
:10087000219A84B18B7D84B985B1846285B924982D
:100880002C9A439A3B9A8AB18FEF8AB984B1816CD2
:1008900084B90E94E40180E00E94AA0980E090E00F
:1008A0000E94BD0B823239F00E94E50062E280E0D6
:1008B00090E00E94C50B1D9930C01A992EC00E946D
:1008C000E50085E691E00E94BE008BE591E00E9484
:1008D000BE0081E591E00E94BE0087E491E00E94A5
:1008E000BE008DE391E00E94BE0083E391E00E9490
:1008F000BE0089E291E00E94BE008FE191E00E947B
:10090000BE0085E191E00E94BE008BE091E00E9474
:10091000BE0081E091E00C94BE001D99D2CF8BE720
:1009200091E00E946D0368EE73E080E090E00E9429
:10093000470983E891E00E946D0368EE73E080E070
:1009400090E00E944709439864EF71E080E090E0F6
:100950000E94470983E10E94AD090E940C04F4CF74
:100960001F93CF93DF93EC01CB010E946D036EEEDA
:1009700072E080E090E00E94470980E20E94EC0271
:10098000882349F08E819F812A813B8182179307BA
:1009900044F501960DC084E00E94EC02882359F0D2
:1009A0008E819F812881398128173907D4F40197D6
:1009B0009F838E8316C080E20E94F302811105C0DE
:1009C00080E20E94FA02882319F12E813F818A81F8
:1009D0009B810A972817390724F4265F3F4F3F83EE
:1009E0002E8311E08E819F810E940C04113029F228
:1009F0000E94F903CE010E94890068EE73E080E056
:100A000090E00E944709DF91CF911F910C9403045D
:100A100084E00E94F30281110DC084E00E94FA027A
:100A2000811108C084E20E94000311E08823D1F202
:100A300010E0D8CF2E813F81888199810A96821754
:100A400093077CF62A503109CACF84E08093E001F5
:100A50008093E10181E08093E2011092E301109222
:100A6000E4018093E501E6EEF1E08081816080831E
:100A70000E94300360ED77E080E090E00C9447093D
:100A80000E946F090E9437048091F00183FF15C016
:100A9000299A439887E891E00E946D0368EE73E01D
:100AA00080E090E00E9447090E94590368EE73E0DD
:100AB00080E090E00E944709EDCF0E9425050E944A
:100AC0008E030E942003C0E0D2E011E08EE00E947D
:100AD000AD092091430130914401280F391F37FDA2
:100AE00005C03093DB012093DA0104C01092DB01D2
:100AF0001092DA0180911B0190911C01019711F075
:100B00001C99C0C1299A0E9418096093D60170935C
:100B1000D7018093D8019093D9010E94F00360918E
:100B2000DA017091DB01882777FD8095982FC090BE
:100B3000BE01D090BF01E090C001F090C1016C0DEA
:100B40007D1D8E1D9F1D6093BE017093BF0180931C
:100B5000C0019093C1012091BC013091BD012F5F74
:100B60003F4F3093BD012093BC0140912F01509124
:100B7000300124173507F1F44091D4015091D5018B
:100B80005093D1014093D001442737FD4095542F15
:100B90000E94E70B3093D5012093D4011092BE013F
:100BA0001092BF011092C0011092C1011092BD01BC
:100BB0001092BC018091D4019091D5018C339105A4
:100BC000BCF41C990BC020911B0130911C012130F9
:100BD000310521F4873291050CF484C21C9907C0B9
:100BE00020911B0130911C01232B09F478C21C9920
:100BF000439880E20E94EC028823B9F00E94180911
:100C00006093B8017093B9018093BA019093BB01CE
:100C10008091390190913A0120913501309136014E
:100C2000821793076CF5019627C084E00E94EC02BE
:100C30008823B9F00E9418096093B8017093B90134
:100C40008093BA019093BB018091390190913A0150
:100C50002091330130913401281739078CF4019722
:100C60000BC080E20E94F30281113EC280E20E942A
:100C7000FA02811139C207C090933A018093390179
:100C80001092000157C084E00E94F302811148C213
:100C900084E00E94FA02811143C284E20E940A03A6
:100CA000882309F447C0299A0E9413036DE571E077
:100CB00080E090E00E94470984E20E94F3028823CA
:100CC00009F44EC26BE971E085E691E00E94B00440
:100CD0006BE871E08BE591E00E94B00461E871E09F
:100CE00081E591E00E94B0046DE871E087E491E055
:100CF0000E94B00461E971E08DE391E00E94B004CC
:100D000065E971E089E291E00E94B00469E971E06F
:100D10008FE191E00E94B0046DE971E08BE091E019
:100D20000E94B00461EA71E081E091E00E94B004A9
:100D30000E9420038091D4019091D5018632924087
:100D40000CF1299A43980E94130385EA91E00E94CE
:100D50006D0368EE73E080E090E00E94470988EA46
:100D600091E00E946D0360ED77E080E090E00E94EA
:100D700047090E94590368EE73E080E090E00E940A
:100D80004709E3CF0E941809C090B801D090B9017B
:100D9000E090BA01F090BB016C197D098E099F09A2
:100DA000603D77408105910560F48091DC018530DC
:100DB00018F40E9459034DC08091390190913A0175
:100DC00046C080910001811117C00E94F90383E39E
:100DD00091E00E94890085E191E00E9489000E94D3
:100DE00018096093B4017093B5018093B601909394
:100DF000B701109300012DC08091D4019091D501CD
:100E000020911B0130911C01893291055CF4213045
:100E1000310519F48BE791E002C08CEA91E00E9461
:100E20006D0317C02130310529F42091DC012431F4
:100E300088F30DC04091390150913A019C01241B67
:100E4000350B2E5F3F4F2530310508F4CA010E9453
:100E50000C040E941809C090B401D090B501E09034
:100E6000B601F090B7016C197D098E099F09653FA5
:100E700071408105910510F00E9403040E94300327
:100E8000A89524CE1C9B0BC02091390130913A01CA
:100E900080913301909134012817390714F4299A6D
:100EA0003CCE8091D4019091D50186329240BCF71E
:100EB0000E9418096B017C018091D6019091D701A5
:100EC000A091D801B091D901C81AD90AEA0AFB0A3F
:100ED000A0912501B091260120E63AEE0E940C0C6B
:100EE000C616D706E806F906D0F643988091D401D5
:100EF0009091D5014091390150913A01481B590B0D
:100F00005093D3014093D201E090D001F090D101F1
:100F1000E81AF90AF092CF01E092CE01FA0157FFE8
:100F200004C0EE27FF27E41BF50B20914D01309103
:100F30004E01BA01882777FD8095982FE217F307B5
:100F4000ACF48090CA019090CB01A090CC01B090FD
:100F5000CD01860E971EA81EB91E8092CA019092DE
:100F6000CB01A092CC01B092CD0108C01092CA0171
:100F70001092CB011092CC011092CD010E94CE0AAA
:100F80004B015C0160916B0170916C01882777FDCA
:100F90008095982F0E94CE0A20E030E048EC52E481
:100FA0000E94330A9B01AC01C501B4010E945A0B97
:100FB0004B015C016091CA017091CB018091CC0121
:100FC0009091CD010E94CE0A2B013C0160916101FC
:100FD00070916201882777FD8095982F0E94CE0A34
:100FE00020E030E44CE156E40E94330A9B01AC015E
:100FF000C301B2010E945A0B9B01AC01C501B401AF
:101000000E94CF094B015C01B701882777FD8095CD
:10101000982F0E94CE0A6B017C016091570170915C
:101020005801882777FD8095982F0E94CE0A20E0EE
:1010300030E048EC51E40E94330A9B01AC01C70147
:10104000B6010E945A0B9B01AC01C501B4010E947C
:10105000CF096093C6017093C7018093C801909334
:10106000C9010E949B0A613022E072072CF4709340
:10107000C5016093C40104C0D093C501C093C401ED
:101080008091C4019091C50197FF04C01092C501E1
:101090001092C4012091C2013091C3018091C4011A
:1010A0009091C5012817390724F40E94E603299876
:1010B00003C0299A0E94F0038091C2019091C3015C
:1010C0000196811522E0920729F09093C301809345
:1010D000C20125CD1092C3011092C20120CD8E977E
:1010E0000CF085CD439A85CD0E9418096093B80114
:1010F0007093B9018093BA019093BB01209139019B
:1011000030913A018091350190913601AC014A50FD
:101110005109241735070CF0AFCD265F3F4F1BC098
:101120000E9418096093B8017093B9018093BA01C5
:101130009093BB012091390130913A0180913301A4
:1011400090913401AC01465F5F4F421753070CF09A
:1011500093CD2A50310930933A012093390190CD33
:1011600084E20E94D60280911B0190911C0121E033
:10117000822790931C0180931B0110920001892B00
:1011800051F40E9418096093B8017093B9018093DB
:10119000BA019093BB011092DC01CACD1F920F924D
:1011A0000FB60F9211242F933F938F939F93AF937A
:1011B000BF938091E8019091E901A091EA01B0917B
:1011C000EB013091E70126E0230F2D3720F4029642
:1011D000A11DB11D05C029E8230F0396A11DB11D56
:1011E0002093E7018093E8019093E901A093EA013D
:1011F000B093EB018091EC019091ED01A091EE0193
:10120000B091EF010196A11DB11D8093EC01909367
:10121000ED01A093EE01B093EF01BF91AF919F91CB
:101220008F913F912F910F900FBE0F901F901895A7
:101230002FB7F8946091E8017091E9018091EA017B
:101240009091EB012FBF08953FB7F8948091EC0186
:101250009091ED01A091EE01B091EF0126B5A89B10
:1012600005C02F3F19F00196A11DB11D3FBF662794
:10127000782F892F9A2F620F711D811D911D43E0D8
:10128000660F771F881F991F4A95D1F70895CF924F
:10129000DF92EF92FF92CF93DF936B017C010E946C
:1012A0002409EB01C114D104E104F10489F00E9486
:1012B000CA090E9424096C1B7D0B683E734090F3A1
:1012C00081E0C81AD108E108F108C851DC4FEACF23
:1012D000DF91CF91FF90EF90DF90CF9008957894B9
:1012E00084B5826084BD84B5816084BD85B582602B
:1012F00085BD85B5816085BDEEE6F0E080818160C9
:101300008083E1E8F0E010828081826080838081C8
:1013100081608083E0E8F0E0808181608083E1EBA0
:10132000F0E0808184608083E0EBF0E08081816088
:101330008083EAE7F0E0808184608083808182603E
:101340008083808181608083808180688083109227
:10135000C10008958093720108958E3008F08E5078
:1013600087702091720190E4299F90011124822BB3
:1013700080937C0080917A00806480937A008091D1
:101380007A0086FDFCCF809178002091790090E072
:10139000922B08950895F8940C94580C5058BB273C
:1013A000AA270ED04DC13ED130F043D120F031F408
:1013B0009F3F11F41EF433C10EF4E095E7FB29C101
:1013C000E92F4FD180F3BA17620773078407950797
:1013D00018F071F49EF567C10EF4E0950B2EBA2F4C
:1013E000A02D0B01B90190010C01CA01A00111242B
:1013F000FF27591B99F0593F50F4503E68F11A16D7
:10140000F040A22F232F342F4427585FF3CF469567
:1014100037952795A795F0405395C9F77EF41F1689
:10142000BA0B620B730B840BBAF09150A1F0FF0F53
:10143000BB1F661F771F881FC2F70EC0BA0F621F3F
:10144000731F841F48F4879577956795B795F7952F
:101450009E3F08F0B3CF9395880F08F09927EE0FC1
:101460009795879508950CD0EBC0E3D040F0DAD083
:1014700030F021F45F3F19F0CCC0511115C1CFC03D
:10148000F0D098F39923C9F35523B1F3951B550B6D
:10149000BB27AA2762177307840738F09F5F5F4F47
:1014A000220F331F441FAA1FA9F333D00E2E3AF088
:1014B000E0E830D091505040E695001CCAF729D0A2
:1014C000FE2F27D0660F771F881FBB1F26173707F1
:1014D0004807AB07B0E809F0BB0B802DBF01FF2721
:1014E00093585F4F2AF09E3F510568F092C0DCC0D0
:1014F0005F3FECF3983EDCF3869577956795B7955B
:10150000F7959F5FC9F7880F911D9695879597F975
:101510000895E1E0660F771F881FBB1F62177307EE
:101520008407BA0720F0621B730B840BBA0BEE1F03
:1015300088F7E095089504D06894B111B5C0089576
:1015400098D088F09F5790F0B92F9927B751A0F005
:10155000D1F0660F771F881F991F1AF0BA95C9F747
:1015600012C0B13081F09FD0B1E008959CC0672FC8
:10157000782F8827B85F39F0B93FCCF386957795F7
:101580006795B395D9F73EF49095809570956195E0
:101590007F4F8F4F9F4F0895E89409C097FB3EF40B
:1015A00090958095709561957F4F8F4F9F4F9923B0
:1015B000A9F0F92F96E9BB279395F695879577952E
:1015C0006795B795F111F8CFFAF4BB0F11F460FFEE
:1015D0001BC06F5F7F4F8F4F9F4F16C0882311F046
:1015E00096E911C0772321F09EE8872F762F05C05A
:1015F000662371F096E8862F70E060E02AF09A95F5
:10160000660F771F881FDAF7880F9695879597F9E9
:10161000089597F99F6780E870E060E008959FEF74
:1016200080EC089500240A94161617061806090679
:10163000089500240A941216130614060506089548
:10164000092E0394000C11F4882352F0BB0F40F4D0
:10165000BF2B11F460FF04C06F5F7F4F8F4F9F4F10
:10166000089557FD9058440F551F59F05F3F71F092
:101670004795880F97FB991F61F09F3F79F08795F9
:101680000895121613061406551FF2CF4695F1DF82
:1016900008C0161617061806991FF1CF8695710512
:1016A000610508940895E894BB2766277727CB0146
:1016B00097F908950BD0C4CFB5DF28F0BADF18F042
:1016C000952309F0A6CFABCF1124EECFCADFA0F34C
:1016D000959FD1F3950F50E0551F629FF001729FC7
:1016E000BB27F00DB11D639FAA27F00DB11DAA1FE6
:1016F000649F6627B00DA11D661F829F2227B00D33
:10170000A11D621F739FB00DA11D621F839FA00DBD
:10171000611D221F749F3327A00D611D231F849F0D
:10172000600D211D822F762F6A2F11249F57504064
:101730008AF0E1F088234AF0EE0FFF1FBB1F661FFF
:10174000771F881F91505040A9F79E3F510570F0B8
:1017500060CFAACF5F3FECF3983EDCF38695779598
:101760006795B795F795E7959F5FC1F7FE2B880FB3
:10177000911D9695879597F90895F999FECF92BD99
:1017800081BDF89A992780B50895262FF999FECF43
:101790001FBA92BD81BD20BD0FB6F894FA9AF99A8E
:1017A0000FBE0196089597FB072E16F4009407D0FC
:1017B00077FD09D00E94130C07FC05D03EF49095EC
:1017C00081959F4F0895709561957F4F0895052EDF
:1017D00097FB1EF400940E94FE0B57FD07D00E9459
:1017E000270C07FC03D04EF40C94FE0B509540954B
:1017F000309521953F4F4F4F5F4F089590958095BD
:10180000709561957F4F8F4F9F4F0895EE0FFF1F8B
:101810000590F491E02D09940E94490CB7FF0895BA
:10182000821B930B0895AA1BBB1B51E107C0AA1F83
:10183000BB1FA617B70710F0A61BB70B881F991F71
:101840005A95A9F780959095BC01CD010895A1E224
:101850001A2EAA1BBB1BFD010DC0AA1FBB1FEE1F2A
:10186000FF1FA217B307E407F50720F0A21BB30B75
:10187000E40BF50B661F771F881F991F1A9469F7F1
:1018800060957095809590959B01AC01BD01CF014D
:101890000895A29FB001B39FC001A39F700D811D49
:1018A0001124911DB29F700D811D1124911D089569
:0418B000F894FFCFDA
:1018B400012C0190016801680114157800B40096A8
:1018C400009600121300000100000000001A1B0023
:1018D400001E000A000A0010116400E703FA00FA6F
:1018E400000E0F3200F4014B004B000C0D9CFF6402
:1018F40000210021000A0B000064002D002D0008C7
:10190400090000E703F401F40106070000E7030FF0
:10191400000F0004050000E7038A028A020203FFA5
:10192400FFFF0143524100444C450046414E0053E1
:1019340050440054535400525354004900495448ED
:1019440000544F460041564700534C500046534CF8
:1019540000465348002A4300455252002D2D2D00C5
:00000001FF
