:100000000C943B000C9467000C9467000C94670000
:100010000C9467000C9467000C9467000C946700C4
:100020000C9467000C9467000C9467000C948C028D
:100030000C9417020C9467000C9467000C946700F2
:100040000C94EC080C9467000C9467000C94670007
:100050000C9467000C9467000C9467000C94670084
:100060000C9467000C94670048023C023E02400278
:1000700042024402460211241FBECFEFD4E0DEBF8D
:10008000CDBFA89584B78093FE0184B7877F84BFD6
:1000900088E10FB6F89480936000109260000FBE64
:1000A00011E0A0E0B1E0E0EFF8E102C005900D92B0
:1000B000AE3BB107D9F721E0AEEBB1E001C01D9234
:1000C000AE3FB207E1F70E944D050C94E9090C948C
:1000D0000000EF92FF920F931F93CF93DF931F9235
:1000E000CDB7DEB77C01FC0100811181C8016983B5
:1000F0000E94DB0B6981681719F0C8010E94E30BAD
:10010000C7010F90DF91CF911F910F91FF90EF905A
:1001100008950F931F93CF93DF9300D0CDB7DEB731
:100120008C01FC01868197812081318182179307A0
:100130002CF022813381281739072CF4F8018481AF
:10014000958197838683F8016781808590E09A8303
:100150008983CE0101960E946900F801668181853C
:1001600090E09A838983CE0101960E9469000F90E6
:100170000F90DF91CF911F910F9108951F93CF930F
:10018000DF93EC01888590E00E94DB0B182F8985B6
:1001900090E00E94DB0B212F30E0322F2227282B0A
:1001A000888199812817390744F08A819B818217B9
:1001B00093071CF03F832E8304C08C819D819F8315
:1001C0008E83DF91CF911F9108958091730190915B
:1001D00074019093760180937501809169019091EB
:1001E0006A0190936C0180936B0180915F01909103
:1001F000600190936201809361018091550190911B
:100200005601909358018093570180914B01909132
:100210004C0190934E0180934D018091410190914A
:100220004201909344018093430180913701909162
:10023000380190933A018093390180912D0190917A
:100240002E019093300180932F011092260110927D
:10025000250110921C0110921B0180910F019091B9
:1002600010019093120180931101809105019091EA
:10027000060190930801809307018FE691E00E94A8
:10028000890085E691E00E9489008BE591E00E945B
:10029000890081E591E00E94890087E491E00E9455
:1002A00089008DE391E00E94890083E391E00E9440
:1002B000890089E291E00E9489008FE191E00E942B
:1002C000890085E191E00E9489008BE091E00E9425
:1002D000890081E091E00C948900643409F45BC0EA
:1002E00040F5673009F44DC090F4633009F447C01D
:1002F00038F4613009F467C008F03FC090E564C08D
:10030000653009F458C008F04AC097E15DC06D320D
:10031000F1F140F46930C9F1B0F16A3209F051C02D
:1003200096E352C06134A9F1633409F04AC090EFFA
:100330004BC06F34E1F180F4683499F128F46634ED
:1003400061F168F590EB40C06C3469F16E3469F18D
:100350006934B9F59FED38C0643579F138F4623508
:1003600041F148F5603569F594E32EC0663539F101
:1003700030F16F3F31F59FEF27C098E325C09AE138
:1003800023C09EE521C090E11FC096E11DC09FEBF8
:100390001BC094E119C099E117C094EB15C090E916
:1003A00013C095E911C091EF0FC094E50DC099E914
:1003B0000BC09DEB09C092E907C091EB05C099ED18
:1003C00003C09FEE01C09FE541119F7EE82FF0E042
:1003D000E758FE4F908308952FB7F894E1E8F0E0D6
:1003E00080818C7F8083808184608083A0E8B0E0FE
:1003F0008C918C7F8C9380818860808380818F7EBC
:1004000080838C918F708C9380E892E09093890028
:100410008093880088E090E090938B0080938A001E
:10042000EFE6F0E08081866080832FBF08951F9201
:100430000F920FB60F9211242F938F939F93AF9328
:10044000BF93EF93FF938091C1018F5F883119F0C3
:100450008093C10102C01092C1018091C1018770D7
:1004600090E0FC013197E730F10520F4EC5CFF4FA0
:100470000C94240C8EEF0DC08BEF0BC087EF09C0DE
:100480008FEE07C08FED05C08FEB03C08FE701C073
:100490008DEF9FEF9BB99091C1019695969596959A
:1004A000913089F050F09230A9F42E9A90917B010E
:1004B000982B9BB928982F9810C0289A9091790171
:1004C000982B9BB908C02F9A90917A01982B9BB9D1
:1004D000289802C028982F982E9880918A00909191
:1004E0008B008038924019F488E090E005C080913C
:1004F0008A0090918B00089690938B0080938A00DD
:10050000FF91EF91BF91AF919F918F912F910F909C
:100510000FBE0F901F9018951F920F920FB60F925B
:1005200011242F938F939F939091ED0183B1809528
:1005300089279091C001982390959093C0012091B4
:10054000BF01282329272093BF018923822390916B
:10055000ED0198279093ED012091ED019091EC0130
:100560002823292B2093EC018091ED01847219F44A
:1005700084E18093BE018091BE01815019F0809387
:10058000BE010BC088E08093BE018091ED01909187
:10059000EB018472892B8093EB018091EA018F5FDC
:1005A0008093EA01833310F01092EA019F918F91BA
:1005B0002F910F900FBE0F901F901895F894909167
:1005C000EC0189239091EC0198279093EC017894A9
:1005D0000895F8949091EB0189239091EB0198276D
:1005E0009093EB0178940895F8949091ED01909593
:1005F00089230C94DE029091EC0189230E94E90288
:100600000C94DE029091EC01909589230C94E90200
:100610009091EC019823981711F080E001C0892F88
:100620000C94DE029091EC019823981390E0809155
:10063000ED0189230895A89584B7877F84BF88E159
:100640000FB6F89480936000109260000FBE08957A
:10065000A89584B7877F84BF2BE088E190E00FB630
:10066000F894A895809360000FBE209360000895D1
:10067000EF92FF920F931F93CF93DF938091F4013A
:1006800080FF18C0EFB6F89401EF11E0CEEED1E094
:10069000F12CF80141918F0169918F2D0E946D011C
:1006A000F394F3E0FF12F5CF8091F4018E7F8093F5
:1006B000F401EFBEDF91CF911F910F91FF90EF906A
:1006C00008958FEF8093EE018093EF018093F00106
:1006D0001092F1011092F2011092F301E4EFF1E0B7
:1006E0008081816080830C9438032FEF2093EE018A
:1006F0002093EF012093F0011092F1011092F2018A
:100700001092F301E1EFF1E0DC012D91CD01211117
:1007100007C08091F40181608093F4010C94380348
:100720002293B1E0EE3EFB0779F7F3CF299A1C9BA9
:100730001DC08DE791E00E94750368EE73E080E0D4
:1007400090E00E94650981E891E00E94750360EDE8
:1007500077E080E090E00E9465090E94610368EE06
:1007600073E080E090E00E946509E1CF439868EB78
:100770007BE080E090E00E94650983E10E94CB0964
:1007800020911101309112018217930738F02091C6
:1007900007013091080128173907F0F4439A85E8DA
:1007A00091E00E94750368EE73E080E090E00E94A3
:1007B000650989E891E00E94750360ED77E080E0CB
:1007C00090E00E9465090E94610368EE73E080E09A
:1007D00090E00E946509E3CF439A089581E08093F9
:1007E000F101E4EFF1E08081816080830C943803B3
:1007F0001092F101E4EFF1E08081816080830C943C
:10080000380381E08093F201E4EFF1E080818160C0
:1008100080830C9438031092F201E4EFF1E08081C0
:10082000816080830C94380397FF0BC021E02093F4
:10083000F1012093F2012093F301919581959109A3
:1008400004C01092F2011092F3012AE030E0B901E5
:100850000E94F10B8093EE01CB01B9010E94F10BD4
:100860008093EF01CB01B9010E94F10B8093F0015D
:100870008091F40181608093F4010C943803299AEB
:10088000219A84B18B7D84B985B1846285B924981D
:100890002C9A439A3B9A8AB18FEF8AB984B1816CC2
:1008A00084B90E94EC0180E00E94C80980E090E0D9
:1008B0000E94DB0B823239F00E94E50062E280E0A8
:1008C00090E00E94E30B1D9934C01A9932C00E9437
:1008D000E5008FE691E00E94BE0085E691E00E946F
:1008E000BE008BE591E00E94BE0081E591E00E9490
:1008F000BE0087E491E00E94BE008DE391E00E947B
:10090000BE0083E391E00E94BE0089E291E00E9474
:10091000BE008FE191E00E94BE0085E191E00E945F
:10092000BE008BE091E00E94BE0081E091E00C945B
:10093000BE001D99CECF85E891E00E94750368EE58
:1009400073E080E090E00E9465098DE891E00E94EC
:10095000750368EE73E080E090E00E9465094398BB
:1009600064EF71E080E090E00E94650983E10E94FD
:10097000CB090E941404F4CF1F93CF93DF93EC01B3
:10098000CB010E9475036EEE72E080E090E00E9461
:10099000650980E20E94F402882349F08E819F81DC
:1009A0002A813B818217930744F501960DC084E0AC
:1009B0000E94F402882359F08E819F812881398119
:1009C00028173907D4F401979F838E8316C080E2DD
:1009D0000E94FB02811105C080E20E94020388236D
:1009E00019F12E813F818A819B810A972817390747
:1009F00024F4265F3F4F3F832E8311E08E819F8139
:100A00000E941404113029F20E940104CE010E94B8
:100A1000890068EE73E080E090E00E946509DF9154
:100A2000CF911F910C940B0484E00E94FB02811172
:100A30000DC084E00E940203811108C084E20E947C
:100A4000080311E08823D1F210E0D8CF2E813F8136
:100A5000888199810A96821793077CF62A5031097A
:100A6000CACF85E08093EE0184E08093EF0181E0BE
:100A70008093F0011092F1011092F2018093F30142
:100A8000E4EFF1E08081816080830E94380360EDB3
:100A900077E080E090E00C9465090E948D090E9447
:100AA0003F048091FE0183FF15C0299A439881E994
:100AB00091E00E94750368EE73E080E090E00E9490
:100AC00065090E94610368EE73E080E090E00E9497
:100AD0006509EDCF0E9431050E9496030E9428030C
:100AE00000E012E0332433948EE00E94CB09EC0145
:100AF00080914D0190914E018C0F9D1F97FD05C077
:100B00009093E9018093E80104C01092E9011092EA
:100B1000E8018091250190912601019711F01C991F
:100B2000CFC1299A0E9436096093E4017093E501D0
:100B30008093E6019093E7010E94F8036091E80139
:100B40007091E901882777FD8095982FC090CC019E
:100B5000D090CD01E090CE01F090CF016C0D7D1DC5
:100B60008E1D9F1D6093CC017093CD018093CE01AB
:100B70009093CF012091CA013091CB012F5F3F4F5D
:100B80003093CB012093CA014091390150913A0131
:100B900024173507F1F44091E2015091E30150939D
:100BA000DF014093DE01442737FD4095542F0E941A
:100BB000050C3093E3012093E2011092CC011092D6
:100BC000CD011092CE011092CF011092CB01109264
:100BD000CA018091E2019091E3018C339105BCF44C
:100BE0001C990BC02091250130912601213031053F
:100BF00021F4873291050CF493C21C9907C020910F
:100C0000250130912601232B09F487C21C994398B2
:100C100080E20E94F4028823B9F00E9436096093B2
:100C2000C6017093C7018093C8019093C901809158
:100C300043019091440120913F013091400182177E
:100C400093076CF5019627C084E00E94F402882384
:100C5000B9F00E9436096093C6017093C701809372
:100C6000C8019093C9018091430190914401209162
:100C70003D0130913E01281739078CF401970BC0D4
:100C800080E20E94FB0281114DC280E20E940203B9
:100C9000811148C207C09093440180934301109290
:100CA00000015DC084E00E94FB02811157C284E014
:100CB0000E940203811152C284E20E94120388231F
:100CC00009F44DC0299A0E941B036DE571E080E094
:100CD00090E00E94650984E20E94FB02882309F4E7
:100CE0005DC265EA71E08FE691E00E94BC0465E9AF
:100CF00071E085E691E00E94BC046BE871E08BE551
:100D000091E00E94BC0467E971E081E591E00E94F6
:100D1000BC046BE971E087E491E00E94BC046FE9D8
:100D200071E083E391E00E94BC0463EA71E089E230
:100D300091E00E94BC0467EA71E085E191E00E94C5
:100D4000BC046BEA71E08BE091E00E94BC046FEAA6
:100D500071E081E091E00E94BC040E942803809130
:100D6000E2019091E301863292400CF1299A439876
:100D70000E941B0383EB91E00E94750368EE73E011
:100D800080E090E00E94650986EB91E00E94750387
:100D900060ED77E080E090E00E9465090E946103C9
:100DA00068EE73E080E090E00E946509E3CF0E9466
:100DB0003609C090C601D090C701E090C801F090FC
:100DC000C9016C197D098E099F09603D7740810535
:100DD000910560F48091EA01853018F40E94610366
:100DE00056C080914301909144014FC08091000111
:100DF000811117C00E9401048DE391E00E948900D7
:100E00008FE191E00E9489000E9436096093C2013F
:100E10007093C3018093C4019093C5013092000187
:100E200036C08091E2019091E3012091250130913B
:100E30002601893291055CF42130310519F485E8E9
:100E400091E002C08AEB91E00E94750320C021303E
:100E5000310529F42091EA01243188F316C020914C
:100E60001B0130911C012130310511F4CE010DC060
:100E700040914301509144019C01241B350B2E5F8E
:100E80003F4F2530310508F4CA010E9414040E9426
:100E90003609C090C201D090C301E090C401F09027
:100EA000C5016C197D098E099F09653F7140810557
:100EB000910510F00E940B040E943803A89514CEEF
:100EC0001C9B0BC0209143013091440180913D0156
:100ED00090913E012817390714F4299A2DCE80915C
:100EE000E2019091E30186329240BCF70E943609FC
:100EF0006B017C018091E4019091E501A091E601F4
:100F0000B091E701C81AD90AEA0AFB0AA0912F0199
:100F1000B091300120E63AEE0E942A0CC616D706A0
:100F2000E806F906D0F643988091E2019091E3013A
:100F30004091430150914401481B590B5093E101EA
:100F40004093E001E090DE01F090DF01E81AF90A39
:100F5000F092DD01E092DC01FA0157FF04C0EE27B8
:100F6000FF27E41BF50B2091570130915801BA017E
:100F7000882777FD8095982FE217F307ACF440900F
:100F8000D8015090D9016090DA017090DB01460ED3
:100F9000571E681E791E4092D8015092D901609266
:100FA000DA017092DB0108C01092D8011092D901C9
:100FB0001092DA011092DB010E94EC0A2B013C0135
:100FC0006091750170917601882777FD8095982F43
:100FD0000E94EC0A20E030E048EC52E40E94510A02
:100FE0009B01AC01C301B2010E94780B2B013C01B3
:100FF0006091D8017091D9018091DA019091DB0163
:101000000E94EC0A4B015C0160916B0170916C01D4
:10101000882777FD8095982F0E94EC0A20E030E425
:101020004CE156E40E94510A9B01AC01C501B40198
:101030000E94780B9B01AC01C301B2010E94ED0933
:101040002B013C01B701882777FD8095982F0E94DE
:10105000EC0A6B017C01609161017091620188274B
:1010600077FD8095982F0E94EC0A20E030E048EC54
:1010700051E40E94510A9B01AC01C701B6010E94D4
:10108000780B9B01AC01C301B2010E94ED09609392
:10109000D4017093D5018093D6019093D7010E941B
:1010A000B90A613022E072072CF47093D301609387
:1010B000D20104C01093D3010093D2018091D201D8
:1010C0009091D30197FF04C01092D3011092D201E6
:1010D0002091D0013091D1018091D2019091D30122
:1010E0002817390724F40E94EE03299803C0299A8F
:1010F0000E94F8038091D0019091D1010196811551
:1011000022E0920729F09093D1018093D00116CD6F
:101110001092D1011092D00111CD8E970CF076CDA6
:10112000439A76CD0E9436096093C6017093C70139
:101130008093C8019093C9012091430130914401EB
:1011400080913F0190914001AC014A505109241710
:1011500035070CF0A0CD265F3F4F1BC00E9436091B
:101160006093C6017093C7018093C8019093C90131
:10117000209143013091440180913D0190913E01C5
:10118000AC01465F5F4F421753070CF084CD2A50E5
:101190003109309344012093430181CD84E20E94C0
:1011A000DE02809125019091260121E08227909313
:1011B00026018093250110920001892B51F40E9491
:1011C00036096093C6017093C7018093C80190935C
:1011D000C9011092EA01C1CD1F920F920FB60F9272
:1011E00011242F933F938F939F93AF93BF9380913D
:1011F000F6019091F701A091F801B091F9013091B9
:10120000F50126E0230F2D3720F40296A11DB11D14
:1012100005C029E8230F0396A11DB11D2093F501F8
:101220008093F6019093F701A093F801B093F90130
:101230008091FA019091FB01A091FC01B091FD0118
:101240000196A11DB11D8093FA019093FB01A0931B
:10125000FC01B093FD01BF91AF919F918F913F91A0
:101260002F910F900FBE0F901F9018952FB7F894E5
:101270006091F6017091F7018091F8019091F90168
:101280002FBF08953FB7F8948091FA019091FB0128
:10129000A091FC01B091FD0126B5A89B05C02F3F90
:1012A00019F00196A11DB11D3FBF6627782F892F28
:1012B0009A2F620F711D811D911D43E0660F771FEC
:1012C000881F991F4A95D1F70895CF92DF92EF9228
:1012D000FF92CF93DF936B017C010E944209EB01E7
:1012E000C114D104E104F10489F00E94E8090E94CC
:1012F00042096C1B7D0B683E734090F381E0C81A75
:10130000D108E108F108C851DC4FEACFDF91CF9155
:10131000FF90EF90DF90CF900895789484B582602D
:1013200084BD84B5816084BD85B5826085BD85B589
:10133000816085BDEEE6F0E0808181608083E1E838
:10134000F0E0108280818260808380818160808370
:10135000E0E8F0E0808181608083E1EBF0E0808173
:1013600084608083E0EBF0E0808181608083EAE745
:10137000F0E08081846080838081826080838081CE
:10138000816080838081806880831092C10008958D
:1013900080937C0108958E3008F08E5087702091E4
:1013A0007C0190E4299F90011124822B80937C0082
:1013B00080917A00806480937A0080917A0086FD23
:1013C000FCCF809178002091790090E0922B0895D5
:1013D0000895F8940C94760C5058BB27AA270ED089
:1013E0004DC13ED130F043D120F031F49F3F11F494
:1013F0001EF433C10EF4E095E7FB29C1E92F4FD16C
:1014000080F3BA17620773078407950718F071F421
:101410009EF567C10EF4E0950B2EBA2FA02D0B019F
:10142000B90190010C01CA01A0011124FF27591B29
:1014300099F0593F50F4503E68F11A16F040A22F2F
:10144000232F342F4427585FF3CF469537952795A0
:10145000A795F0405395C9F77EF41F16BA0B620B9F
:10146000730B840BBAF09150A1F0FF0FBB1F661FE6
:10147000771F881FC2F70EC0BA0F621F731F841F29
:1014800048F4879577956795B795F7959E3F08F04F
:10149000B3CF9395880F08F09927EE0F979587950E
:1014A00008950CD0EBC0E3D040F0DAD030F021F456
:1014B0005F3F19F0CCC0511115C1CFC0F0D098F3E7
:1014C0009923C9F35523B1F3951B550BBB27AA27C5
:1014D00062177307840738F09F5F5F4F220F331F37
:1014E000441FAA1FA9F333D00E2E3AF0E0E830D003
:1014F00091505040E695001CCAF729D0FE2F27D006
:10150000660F771F881FBB1F261737074807AB07D3
:10151000B0E809F0BB0B802DBF01FF2793585F4F48
:101520002AF09E3F510568F092C0DCC05F3FECF3AB
:10153000983EDCF3869577956795B795F7959F5F0D
:10154000C9F7880F911D9695879597F90895E1E061
:10155000660F771F881FBB1F621773078407BA07C0
:1015600020F0621B730B840BBA0BEE1F88F7E0951B
:10157000089504D06894B111B5C0089598D088F04A
:101580009F5790F0B92F9927B751A0F0D1F0660F6F
:10159000771F881F991F1AF0BA95C9F712C0B1308A
:1015A00081F09FD0B1E008959CC0672F782F8827E5
:1015B000B85F39F0B93FCCF3869577956795B395C9
:1015C000D9F73EF490958095709561957F4F8F4F38
:1015D0009F4F0895E89409C097FB3EF4909580953D
:1015E000709561957F4F8F4F9F4F9923A9F0F92FE9
:1015F00096E9BB279395F695879577956795B79567
:10160000F111F8CFFAF4BB0F11F460FF1BC06F5F4C
:101610007F4F8F4F9F4F16C0882311F096E911C05E
:10162000772321F09EE8872F762F05C0662371F07F
:1016300096E8862F70E060E02AF09A95660F771F93
:10164000881FDAF7880F9695879597F9089597F987
:101650009F6780E870E060E008959FEF80EC089558
:1016600000240A9416161706180609060895002481
:101670000A9412161306140605060895092E0394FB
:10168000000C11F4882352F0BB0F40F4BF2B11F46F
:1016900060FF04C06F5F7F4F8F4F9F4F089557FDCE
:1016A0009058440F551F59F05F3F71F04795880FD0
:1016B00097FB991F61F09F3F79F087950895121667
:1016C00013061406551FF2CF4695F1DF08C0161613
:1016D00017061806991FF1CF8695710561050894C4
:1016E0000895E894BB2766277727CB0197F90895DB
:1016F0000BD0C4CFB5DF28F0BADF18F0952309F07E
:10170000A6CFABCF1124EECFCADFA0F3959FD1F3C4
:10171000950F50E0551F629FF001729FBB27F00D9F
:10172000B11D639FAA27F00DB11DAA1F649F6627F4
:10173000B00DA11D661F829F2227B00DA11D621F43
:10174000739FB00DA11D621F839FA00D611D221FFD
:10175000749F3327A00D611D231F849F600D211DE1
:10176000822F762F6A2F11249F5750408AF0E1F084
:1017700088234AF0EE0FFF1FBB1F661F771F881FCD
:1017800091505040A9F79E3F510570F060CFAACF0D
:101790005F3FECF3983EDCF3869577956795B795B8
:1017A000F795E7959F5FC1F7FE2B880F911D9695E2
:1017B000879597F90895F999FECF92BD81BDF89A62
:1017C000992780B50895262FF999FECF1FBA92BDAB
:1017D00081BD20BD0FB6F894FA9AF99A0FBE019612
:1017E000089597FB072E16F4009407D077FD09D0D3
:1017F0000E94310C07FC05D03EF4909581959F4FD7
:101800000895709561957F4F0895052E97FB1EF4FE
:1018100000940E941C0C57FD07D00E94450C07FC49
:1018200003D04EF40C941C0C5095409530952195A6
:101830003F4F4F4F5F4F08959095809570956195FC
:101840007F4F8F4F9F4F0895EE0FFF1F0590F4912C
:10185000E02D09940E94670CB7FF0895821B930B3B
:101860000895AA1BBB1B51E107C0AA1FBB1FA617E7
:10187000B70710F0A61BB70B881F991F5A95A9F739
:1018800080959095BC01CD010895A1E21A2EAA1B66
:10189000BB1BFD010DC0AA1FBB1FEE1FFF1FA21720
:1018A000B307E407F50720F0A21BB30BE40BF50B1D
:1018B000661F771F881F991F1A9469F760957095A6
:1018C000809590959B01AC01BD01CF010895A29F29
:1018D000B001B39FC001A39F700D811D1124911D04
:1018E000B29F700D811D1124911D0895F894FFCFB2
:1018F000012C0190016801680114157800B400966C
:10190000009600121300000100000000001C1D00E2
:10191000000100000000001A1B00001E000A000A5F
:101920000010116400E703FA00FA000E0F3200F411
:10193000014B004B000C0D9CFF6400210021000AAC
:101940000B000064002D002D0008090000E703F4DF
:1019500001F40106070000E7030F000F0004050073
:1019600000E7038A028A020203FFFFFF014352419C
:1019700000444C450046414E0053504400545354DB
:101980000052535400490049544800544F46004106
:10199000564700534C50004144430046534C0046C8
:0E19A0005348002A4300455252002D2D2D00C1
:00000001FF
