:100000000C9434000C9451000C9451000C94510049
:100010000C9451000C9451000C9451000C9451001C
:100020000C9451000C9451000C9451000C944F010D
:100030000C9451000C9451000C9451000C945100FC
:100040000C940C060C9451000C9451000C9451002B
:100050000C9451000C9451000C9451000C945100DC
:100060000C9451000C94510011241FBECFEFD4E02A
:10007000DEBFCDBF11E0A0E0B1E0ECECF2E102C0E8
:1000800005900D92A634B107D9F711E0A6E4B1E0CE
:1000900001C01D92A937B107E1F70E9402070C9435
:1000A00064090C940000CF93DF93EC0197FF0BC021
:1000B0008EE2809311018093120180931301D095F9
:1000C000C195DF4F05C08FEF80931201809313011C
:1000D00087E2CF30D80721F421E44EE466E423C060
:1000E0008AE1CA30D80721F42DE24DE26DE21BC04F
:1000F000CE0164E670E00E941409FC016AE070E041
:100100000E9400099C01482FCF01821B930B6AE0DB
:1001100070E00E940009262FCE018E1B9F0B64E623
:1001200070E00E94000940930E0120930F0160933C
:100130001001DF91CF910895982F28982F982E982D
:100140008FEF8BB9923091F0933028F4992351F0CE
:10015000913069F409C0943039F0943018F095303A
:1001600031F404C0289A03C02F9A01C02E9A6D3230
:1001700009F457C06E32F8F4643009F446C06530B3
:1001800050F46130E1F16130C0F16230D1F163309F
:1001900009F05DC038C06730F1F1683030F4653087
:1001A000B1F1663009F053C034C06830B1F1693044
:1001B00009F04DC034C0693409F43FC06A3478F4A2
:1001C0006434E9F1653430F46E3209F440C06134CE
:1001D000F1F52DC0663449F16834C9F534C0603595
:1001E00051F1613528F46E3421F16F3481F51BC073
:1001F000643539F16F3F59F528C080E529C08FE596
:1002000027C088E325C08AE123C087E121C082E9B5
:100210001FC080E91DC08EE51BC080E119C086E1CA
:1002200017C08FEB15C089E913C084EB11C084E1BE
:100230000FC084E50DC084E30BC08FED09C089E1D8
:1002400007C081EB05C085E903C06BB908958FEE47
:100250008BB908952FB7F894E1E8F0E080818260CF
:1002600080838081897F8083A0E8B0E08C918C7F3F
:100270008C9380818860808380818F7E80838C9145
:100280008F708C9380E090E2909389008093880037
:10029000EFE6F0E08081826080832FBF08951F9297
:1002A0000F920FB60F9211241F932F933F934F93EA
:1002B0005F936F937F938F939F93AF93BF93EF93CE
:1002C000FF9328982F982E9810914601E12FF0E087
:1002D000E25FFE4F812F60810E949C001F5F1093A0
:1002E0004601163011F410924601FF91EF91BF9133
:1002F000AF919F918F917F916F915F914F913F91BE
:100300002F911F910F900FBE0F901F90189543983B
:1003100060ED77E080E090E00E946E06439A0895D9
:100320001F93CF93DF93EC016E818FE691E070E035
:100330000E94D405182F6F818FE691E070E00E9433
:10034000D405312F20E0482F50E0422B532B288139
:1003500039814217530744F08A819B81841795079E
:100360001CF05D834C8302C03D832C83DF91CF91D1
:100370001F910895CF93DF93EC012C813D8148813B
:100380005981241735072CF08A819B8182179307A6
:1003900014F45D834C836E814C815D81452F550F34
:1003A000550B8FE691E070E00E94DB056F818FE6D0
:1003B00091E070E04C810E94DB05DF91CF910895C0
:1003C000EF92FF920F931F93DF93CF930F92CDB7CE
:1003D000DEB78C018FEF80930E0180930F01809325
:1003E0001001809311018093120180931301DB01AE
:1003F000E0E1F1E08C91882339F080831196319708
:1004000081E0ED30F807B1F76EEE72E080E090E049
:100410000E946E06EE24FF241D9983C01A9981C0A4
:1004200019825FC00894E11CF11CE4EFEE16E1E0D4
:10043000FE0661F4F80124813581828193812817B9
:1004400039070CF045C02F5F3F4F2AC0F0EDEF1683
:10045000F7E0FF06E9F5F801248135818281938177
:100460000A9728173907BCF5265F3F4F2CC01A9B07
:1004700005C081E08983EE24FF2433C00894E11C89
:10048000F11CE4EFEE16E1E0FE0669F4F8012481C8
:1004900035818081918182179307D4F421503040B7
:1004A0003583248315C0F0EDEF16F7E0FF0681F4E5
:1004B000F80124813581808191810A968217930702
:1004C00054F42A50304035832483F1E0F98305C089
:1004D00081E0898306C0E1E0E98395EFE92E91E0B0
:1004E000F92EF801848195810E945300F981F13041
:1004F00009F492CF8EE280931301C8010E94BA01E1
:1005000068EE73E080E090E00E946E068FEF8093CB
:1005100013010F90CF91DF911F910F91FF90EF90FA
:1005200008951D9B7FCFA3CFAF92BF92CF92DF9252
:10053000EF92FF920F931F93CF93DF9380916D0102
:1005400090916E0190936C0180936B018EE00E94FC
:10055000EA052091380130913901280F391F309375
:100560006E0120936D0137FF04C010926E0110924E
:100570006D011C9B91C220914001309141018091FD
:100580003C0190913D01281739070CF485C28091F8
:1005900065019091660142E0883594070CF07CC2B9
:1005A0004398F901E81BF90BF0935A01E0935901C4
:1005B000C0916301D0916401C81BD90BD093540141
:1005C000C09353019F01F7FF04C0222733272E1B3E
:1005D0003F0B809130019091310128173907D4F4F5
:1005E0009F01442737FD4095542F809155019091EC
:1005F0005601A0915701B0915801820F931FA41F7B
:10060000B51F8093550190935601A0935701B09365
:10061000580108C0109255011092560110925701CE
:1006200010925801BF01882777FD8095982F0E946E
:1006300011087B018C0160911801709119018827C4
:1006400077FD8095982F0E94110820E030E048EC5B
:1006500052E40E9476079B01AC01C801B7010E94D9
:100660009D085B016C01609155017091560180916C
:100670005701909158010E9411087B018C016091F3
:10068000200170912101882777FD8095982F0E9485
:10069000110820E030E44CE156E40E9476079B010B
:1006A000AC01C801B7010E949D089B01AC01C601C5
:1006B000B5010E9412075B016C01BE01882777FD1E
:1006C0008095982F0E9411087B018C016091280170
:1006D00070912901882777FD8095982F0E94110835
:1006E00020E030E048E452E40E9476079B01AC0130
:1006F000C801B7010E949D089B01AC01C601B5016C
:100700000E94120760934F01709350018093510132
:10071000909352010E94DE0770935C0160935B012D
:100720006150724034F080E092E090935C018093DD
:100730005B0180915B0190915C0197FF04C0109276
:100740005C0110925B0120915D0130915E0180910E
:100750005B0190915C01281739072CF48EE280939D
:100760001101299804C0299A8FEF80931101C901C2
:10077000019690935E0180935D018050924021F438
:1007800010925E0110925D0180916D0190916E0159
:100790009C01442737FD4095542F8091670190912B
:1007A0006801A0916901B0916A01280F391F4A1FA1
:1007B0005B1F209367013093680140936901509358
:1007C0006A018091470190914801019690934801F8
:1007D00080934701885E934001F580916501909177
:1007E00066019093640180936301CA01B90128EE08
:1007F00033E040E050E00E942709309366012093E7
:1008000065011092670110926801109269011092BF
:100810006A01109248011092470180916501909100
:1008200066018C3391053CF41C993BC18E970CF00A
:1008300038C1439A01C043981D9936C11A9934C1F1
:10084000299A84E191E060E071E00E94E0018CE18E
:1008500091E062E071E00E94E00184E291E064E0F6
:1008600071E00E94E0018CE291E066E071E00E949C
:10087000E00184E391E06AE071E00E94E00187C05A
:100880000E94600660935F01709360018093610134
:100890009093620180914D0190914E010196909349
:1008A0004E0180934D01883C910579F420914001DF
:1008B0003091410180913E0190913F012817390705
:1008C0000CF065C02F5F3F4F39C08855924009F04A
:1008D0005EC0209140013091410180913E01909194
:1008E0003F010A97281739070CF046C0265F3F4F93
:1008F0003DC01A9948C00E94600660935F017093E2
:100900006001809361019093620180914D0190910B
:100910004E01019690934E0180934D01883C9105C4
:10092000A1F4209140013091410180913C019091CE
:100930003D01821793075CF521503040309341010F
:10094000209340011092440122C088559240F9F44E
:10095000209140013091410180913C0190913D01F5
:100960000A968217930744F42A503040309341018D
:10097000209340011092440189EC90E090934E0145
:1009800080934D0104C010924E0110924D010E94BF
:10099000600620915F0130916001409161015091AA
:1009A0006201621B730B840B950B605D7740804086
:1009B000904028F4809140019091410154C0809171
:1009C00044018823A9F48EE2809313018CE391E023
:1009D0000E94BA010E9460066093490170934A0127
:1009E00080934B0190934C0181E0809344013DC082
:1009F0002091650130916601293231051CF48AE0AD
:100A00009AE131C042E02835340704F1299A43982D
:100A10001FEF8FE097E20E94530068EE73E080E0E2
:100A200090E00E946E0610930E0110930F01109338
:100A3000100110931101109312011093130168EE2D
:100A400073E080E090E00E946E06E3CF40914001A9
:100A500050914101C901841B950B0296059710F432
:100A6000CA0101C0C9010E9453000E946006209182
:100A7000490130914A0140914B0150914C01621B58
:100A8000730B840B950B655F71408040904078F04C
:100A90008FEF809313010BC0299A8FEF8093110180
:100AA00073CE1C99C8CEC8CE1D9923CFE9CEDF9155
:100AB000CF911F910F91FF90EF90DF90CF90BF905B
:100AC000AF900895299A219A84B18B7D84B985B11C
:100AD000846285B924982C9A439A3B9A8AB18FEF05
:100AE0008AB984B1816C84B980E00E94E70584E111
:100AF00091E00E9490018CE191E00E94900184E2DB
:100B000091E00E9490018CE291E00E94900184E3C8
:100B100091E00E9490018CE391E00E9490011D9968
:100B20003EC01A993CC08AE892E0909319018093E4
:100B300018018FE090E090932101809320018EEEC8
:100B400092E090932901809328018DE290E09093A8
:100B500031018093300181E290E0909339018093DC
:100B600038018BE490E0909341018093400184E14F
:100B700091E00E94BA018CE191E00E94BA0184E206
:100B800091E00E94BA018CE291E00E94BA0184E3F4
:100B900091E00E94BA018CE391E00E94BA010E94A8
:100BA00087010E942A010895F999FECF72BD61BDA7
:100BB000F89A80B50895F999FECF1FBA72BD61BD4C
:100BC00040BD0FB6F894FA9AF99A0FBE0895809333
:100BD00045010895982F8E3008F09E5097708091AF
:100BE00045018295880F880F807C892B80937C003B
:100BF00080917A00806480937A0080917A0086FDEB
:100C0000FCCF2091780040917900942F80E030E073
:100C1000282B392BC90108951F920F920FB60F92FE
:100C200011242F933F934F935F936F937F938F93F1
:100C30009F93AF93BF9320917401309175014091C0
:100C400076015091770170917801DA01C90102961D
:100C5000A11DB11D672F6A5F6D3730F06D57DA0146
:100C6000C9010396A11DB11D6093780180937401A1
:100C700090937501A0937601B093770180917001F4
:100C800090917101A0917201B09173010196A11D23
:100C9000B11D8093700190937101A0937201B09384
:100CA0007301BF91AF919F918F917F916F915F91F0
:100CB0004F913F912F910F900FBE0F901F9018955D
:100CC0008FB7F894209174013091750140917601AD
:100CD000509177018FBFB901CA0108959B01AC0102
:100CE0007FB7F8948091700190917101A091720189
:100CF000B091730166B5A89B05C06F3F19F00196CE
:100D0000A11DB11D7FBFBA2FA92F982F8827860F4D
:100D1000911DA11DB11D63E0880F991FAA1FBB1F64
:100D20006A95D1F7BC012DC0FFB7F894809170018E
:100D300090917101A0917201B0917301E6B5A89BE9
:100D400005C0EF3F19F00196A11DB11DFFBFBA2FDD
:100D5000A92F982F88278E0F911DA11DB11DE3E0AB
:100D6000880F991FAA1FBB1FEA95D1F7861B970B07
:100D7000885E9340C8F22150304040405040685156
:100D80007C4F211531054105510571F60895789480
:100D900084B5826084BD84B5816084BD85B5826080
:100DA00085BD85B5816085BDEEE6F0E0808181601E
:100DB0008083E1E8F0E0108280818260808380811E
:100DC00081608083E0E8F0E0808181608083E1EBF6
:100DD000F0E0808184608083E0EBF0E080818160DE
:100DE0008083EAE7F0E08081846080838081826094
:100DF000808380818160808380818068808310927D
:100E0000C1000895CF93DF930E94C7060E94620538
:100E1000C0E0D0E00E9494022097E1F30E9400001D
:100E2000F9CF5058BB27AA270ED04DC13ED130F084
:100E300043D120F031F49F3F11F41EF433C10EF47E
:100E4000E095E7FB29C1E92F4FD180F3BA1762077C
:100E500073078407950718F071F49EF567C10EF4C7
:100E6000E0950B2EBA2FA02D0B01B90190010C01BA
:100E7000CA01A0011124FF27591B99F0593F50F4D2
:100E8000503E68F11A16F040A22F232F342F44272A
:100E9000585FF3CF469537952795A795F040539522
:100EA000C9F77EF41F16BA0B620B730B840BBAF0F2
:100EB0009150A1F0FF0FBB1F661F771F881FC2F75D
:100EC0000EC0BA0F621F731F841F48F48795779571
:100ED0006795B795F7959E3F08F0B3CF9395880F28
:100EE00008F09927EE0F9795879508950CD0EBC0E1
:100EF000E3D040F0DAD030F021F45F3F19F0CCC0FD
:100F0000511115C1CFC0F0D098F39923C9F35523DF
:100F1000B1F3951B550BBB27AA27621773078407EC
:100F200038F09F5F5F4F220F331F441FAA1FA9F3A2
:100F300033D00E2E3AF0E0E830D091505040E69594
:100F4000001CCAF729D0FE2F27D0660F771F881FF5
:100F5000BB1F261737074807AB07B0E809F0BB0BE4
:100F6000802DBF01FF2793585F4F2AF09E3F510508
:100F700068F092C0DCC05F3FECF3983EDCF38695EE
:100F800077956795B795F7959F5FC9F7880F911D7E
:100F90009695879597F90895E1E0660F771F881F6A
:100FA000BB1F621773078407BA0720F0621B730B1D
:100FB000840BBA0BEE1F88F7E095089504D068946F
:100FC000B111B5C0089598D088F09F5790F0B92F0F
:100FD0009927B751A0F0D1F0660F771F881F991F8E
:100FE0001AF0BA95C9F712C0B13081F09FD0B1E0C4
:100FF00008959CC0672F782F8827B85F39F0B93FD4
:10100000CCF3869577956795B395D9F73EF490958F
:101010008095709561957F4F8F4F9F4F0895E8940D
:1010200009C097FB3EF490958095709561957F4F30
:101030008F4F9F4F9923A9F0F92F96E9BB279395DE
:10104000F695879577956795B795F111F8CFFAF4EE
:10105000BB0F11F460FF1BC06F5F7F4F8F4F9F4F1F
:1010600016C0882311F096E911C0772321F09EE87D
:10107000872F762F05C0662371F096E8862F70E0E3
:1010800060E02AF09A95660F771F881FDAF7880FBD
:101090009695879597F9089597F99F6780E870E08E
:1010A00060E008959FEF80EC089500240A941616DE
:1010B000170618060906089500240A941216130646
:1010C000140605060895092E0394000C11F48823D4
:1010D00052F0BB0F40F4BF2B11F460FF04C06F5FF0
:1010E0007F4F8F4F9F4F089557FD9058440F551FC6
:1010F00059F05F3F71F04795880F97FB991F61F09A
:101100009F3F79F087950895121613061406551F10
:10111000F2CF4695F1DF08C0161617061806991F7C
:10112000F1CF86957105610508940895E894BB2771
:1011300066277727CB0197F908950BD0C4CFB5DF89
:1011400028F0BADF18F0952309F0A6CFABCF112411
:10115000EECFCADFA0F3959FD1F3950F50E0551F56
:10116000629FF001729FBB27F00DB11D639FAA27FC
:10117000F00DB11DAA1F649F6627B00DA11D661F4B
:10118000829F2227B00DA11D621F739FB00DA11D6C
:10119000621F839FA00D611D221F749F3327A00D26
:1011A000611D231F849F600D211D822F762F6A2FC2
:1011B00011249F5750408AF0E1F088234AF0EE0F47
:1011C000FF1FBB1F661F771F881F91505040A9F754
:1011D0009E3F510570F060CFAACF5F3FECF3983E81
:1011E000DCF3869577956795B795F795E7959F5FBB
:1011F000C1F7FE2B880F911D9695879597F9089555
:10120000AA1BBB1B51E107C0AA1FBB1FA617B7072C
:1012100010F0A61BB70B881F991F5A95A9F7809548
:101220009095BC01CD01089597FB092E07260AD0A1
:1012300077FD04D0E5DF06D000201AF470956195A3
:101240007F4F0895F6F7909581959F4F089597FBEE
:10125000092E05260ED057FD04D014D00AD0001C4C
:1012600038F450954095309521953F4F4F4F5F4F43
:101270000895F6F790958095709561957F4F8F4F03
:101280009F4F0895A1E21A2EAA1BBB1BFD010DC0A2
:10129000AA1FBB1FEE1FFF1FA217B307E407F50726
:1012A00020F0A21BB30BE40BF50B661F771F881F02
:1012B000991F1A9469F760957095809590959B0198
:0C12C000AC01BD01CF010895F894FFCFF0
:1012CC0050004900440049544800544F4600FFFF69
:1012DC00FFFFFFFF0000E7038A0202030000E703A1
:1012EC000F0004050000E703EE020607000064008F
:1012FC002D0008099CFF640021000A0B3200F40148
:06130C004B000C0D010175
:00000001FF
